{
  "contractName": "DecentralizedVotingSystem",
  "abi": [
    {
      "inputs": [],
      "stateMutability": "nonpayable",
      "type": "constructor"
    },
    {
      "anonymous": false,
      "inputs": [
        {
          "indexed": true,
          "internalType": "uint256",
          "name": "electionId",
          "type": "uint256"
        },
        {
          "indexed": false,
          "internalType": "uint256",
          "name": "candidateId",
          "type": "uint256"
        },
        {
          "indexed": false,
          "internalType": "string",
          "name": "name",
          "type": "string"
        }
      ],
      "name": "CandidateAdded",
      "type": "event"
    },
    {
      "anonymous": false,
      "inputs": [
        {
          "indexed": true,
          "internalType": "uint256",
          "name": "electionId",
          "type": "uint256"
        },
        {
          "indexed": false,
          "internalType": "string",
          "name": "title",
          "type": "string"
        },
        {
          "indexed": false,
          "internalType": "address",
          "name": "admin",
          "type": "address"
        }
      ],
      "name": "ElectionCreated",
      "type": "event"
    },
    {
      "anonymous": false,
      "inputs": [
        {
          "indexed": true,
          "internalType": "uint256",
          "name": "electionId",
          "type": "uint256"
        },
        {
          "indexed": false,
          "internalType": "uint256",
          "name": "winningCandidateId",
          "type": "uint256"
        }
      ],
      "name": "ElectionFinalized",
      "type": "event"
    },
    {
      "anonymous": false,
      "inputs": [
        {
          "indexed": true,
          "internalType": "uint256",
          "name": "electionId",
          "type": "uint256"
        },
        {
          "indexed": true,
          "internalType": "address",
          "name": "voter",
          "type": "address"
        },
        {
          "indexed": false,
          "internalType": "uint256",
          "name": "candidateId",
          "type": "uint256"
        }
      ],
      "name": "VoteCast",
      "type": "event"
    },
    {
      "inputs": [
        {
          "internalType": "address",
          "name": "",
          "type": "address"
        }
      ],
      "name": "admins",
      "outputs": [
        {
          "internalType": "bool",
          "name": "",
          "type": "bool"
        }
      ],
      "stateMutability": "view",
      "type": "function"
    },
    {
      "inputs": [],
      "name": "electionCount",
      "outputs": [
        {
          "internalType": "uint256",
          "name": "",
          "type": "uint256"
        }
      ],
      "stateMutability": "view",
      "type": "function"
    },
    {
      "inputs": [
        {
          "internalType": "uint256",
          "name": "",
          "type": "uint256"
        }
      ],
      "name": "elections",
      "outputs": [
        {
          "internalType": "uint256",
          "name": "id",
          "type": "uint256"
        },
        {
          "internalType": "string",
          "name": "title",
          "type": "string"
        },
        {
          "internalType": "string",
          "name": "description",
          "type": "string"
        },
        {
          "internalType": "uint256",
          "name": "startTime",
          "type": "uint256"
        },
        {
          "internalType": "uint256",
          "name": "endTime",
          "type": "uint256"
        },
        {
          "internalType": "bool",
          "name": "finalized",
          "type": "bool"
        },
        {
          "internalType": "address",
          "name": "admin",
          "type": "address"
        },
        {
          "internalType": "uint256",
          "name": "candidateCount",
          "type": "uint256"
        },
        {
          "internalType": "uint256",
          "name": "totalVotes",
          "type": "uint256"
        }
      ],
      "stateMutability": "view",
      "type": "function"
    },
    {
      "inputs": [],
      "name": "owner",
      "outputs": [
        {
          "internalType": "address",
          "name": "",
          "type": "address"
        }
      ],
      "stateMutability": "view",
      "type": "function"
    },
    {
      "inputs": [
        {
          "internalType": "address",
          "name": "_admin",
          "type": "address"
        }
      ],
      "name": "addAdmin",
      "outputs": [],
      "stateMutability": "nonpayable",
      "type": "function"
    },
    {
      "inputs": [
        {
          "internalType": "address",
          "name": "_admin",
          "type": "address"
        }
      ],
      "name": "removeAdmin",
      "outputs": [],
      "stateMutability": "nonpayable",
      "type": "function"
    },
    {
      "inputs": [
        {
          "internalType": "string",
          "name": "_title",
          "type": "string"
        },
        {
          "internalType": "string",
          "name": "_description",
          "type": "string"
        },
        {
          "internalType": "uint256",
          "name": "_startTime",
          "type": "uint256"
        },
        {
          "internalType": "uint256",
          "name": "_endTime",
          "type": "uint256"
        }
      ],
      "name": "createElection",
      "outputs": [
        {
          "internalType": "uint256",
          "name": "",
          "type": "uint256"
        }
      ],
      "stateMutability": "nonpayable",
      "type": "function"
    },
    {
      "inputs": [
        {
          "internalType": "uint256",
          "name": "_electionId",
          "type": "uint256"
        },
        {
          "internalType": "string",
          "name": "_name",
          "type": "string"
        },
        {
          "internalType": "string",
          "name": "_details",
          "type": "string"
        }
      ],
      "name": "addCandidate",
      "outputs": [
        {
          "internalType": "uint256",
          "name": "",
          "type": "uint256"
        }
      ],
      "stateMutability": "nonpayable",
      "type": "function"
    },
    {
      "inputs": [
        {
          "internalType": "uint256",
          "name": "_electionId",
          "type": "uint256"
        },
        {
          "internalType": "uint256",
          "name": "_candidateId",
          "type": "uint256"
        }
      ],
      "name": "vote",
      "outputs": [],
      "stateMutability": "nonpayable",
      "type": "function"
    },
    {
      "inputs": [
        {
          "internalType": "uint256",
          "name": "_electionId",
          "type": "uint256"
        }
      ],
      "name": "finalizeElection",
      "outputs": [
        {
          "internalType": "uint256",
          "name": "",
          "type": "uint256"
        }
      ],
      "stateMutability": "nonpayable",
      "type": "function"
    },
    {
      "inputs": [
        {
          "internalType": "uint256",
          "name": "_electionId",
          "type": "uint256"
        },
        {
          "internalType": "uint256",
          "name": "_candidateId",
          "type": "uint256"
        }
      ],
      "name": "getCandidate",
      "outputs": [
        {
          "internalType": "uint256",
          "name": "id",
          "type": "uint256"
        },
        {
          "internalType": "string",
          "name": "name",
          "type": "string"
        },
        {
          "internalType": "string",
          "name": "details",
          "type": "string"
        },
        {
          "internalType": "uint256",
          "name": "voteCount",
          "type": "uint256"
        }
      ],
      "stateMutability": "view",
      "type": "function"
    },
    {
      "inputs": [
        {
          "internalType": "uint256",
          "name": "_electionId",
          "type": "uint256"
        }
      ],
      "name": "getElectionDetails",
      "outputs": [
        {
          "internalType": "uint256",
          "name": "id",
          "type": "uint256"
        },
        {
          "internalType": "string",
          "name": "title",
          "type": "string"
        },
        {
          "internalType": "string",
          "name": "description",
          "type": "string"
        },
        {
          "internalType": "uint256",
          "name": "startTime",
          "type": "uint256"
        },
        {
          "internalType": "uint256",
          "name": "endTime",
          "type": "uint256"
        },
        {
          "internalType": "bool",
          "name": "finalized",
          "type": "bool"
        },
        {
          "internalType": "address",
          "name": "admin",
          "type": "address"
        },
        {
          "internalType": "uint256",
          "name": "candidateCount",
          "type": "uint256"
        },
        {
          "internalType": "uint256",
          "name": "totalVotes",
          "type": "uint256"
        }
      ],
      "stateMutability": "view",
      "type": "function"
    },
    {
      "inputs": [
        {
          "internalType": "uint256",
          "name": "_electionId",
          "type": "uint256"
        },
        {
          "internalType": "address",
          "name": "_voter",
          "type": "address"
        }
      ],
      "name": "hasVoted",
      "outputs": [
        {
          "internalType": "bool",
          "name": "",
          "type": "bool"
        }
      ],
      "stateMutability": "view",
      "type": "function"
    },
    {
      "inputs": [
        {
          "internalType": "uint256",
          "name": "_electionId",
          "type": "uint256"
        }
      ],
      "name": "getWinningCandidate",
      "outputs": [
        {
          "internalType": "uint256",
          "name": "winningCandidateId",
          "type": "uint256"
        }
      ],
      "stateMutability": "view",
      "type": "function"
    }
  ],
  "bytecode": "0x608060405234801561000f575f80fd5b50335f806101000a81548173ffffffffffffffffffffffffffffffffffffffff021916908373ffffffffffffffffffffffffffffffffffffffff160217905550600160035f3373ffffffffffffffffffffffffffffffffffffffff1673ffffffffffffffffffffffffffffffffffffffff1681526020019081526020015f205f6101000a81548160ff0219169083151502179055505f600181905550612998806100b85f395ff3fe608060405234801561000f575f80fd5b50600436106100e8575f3560e01c80637ad36e841161008a578063b384abef11610064578063b384abef1461028b578063e6c62efc146102a7578063ef551050146102d7578063f604992414610307576100e8565b80637ad36e841461021f5780638da5cb5b1461024f578063997d28301461026d576100e8565b806343859632116100c657806343859632146101685780634bd46448146101985780635e6fef01146101cb5780637048027514610203576100e8565b80631537052e146100ec5780631785f53c1461011c578063429b62e514610138575b5f80fd5b610106600480360381019061010191906118f2565b61033f565b604051610113919061192c565b60405180910390f35b6101366004803603810190610131919061199f565b6105b2565b005b610152600480360381019061014d919061199f565b610723565b60405161015f91906119e4565b60405180910390f35b610182600480360381019061017d91906119fd565b610740565b60405161018f91906119e4565b60405180910390f35b6101b260048036038101906101ad9190611a3b565b6107f7565b6040516101c29493929190611b03565b60405180910390f35b6101e560048036038101906101e091906118f2565b610a0d565b6040516101fa99989796959493929190611b63565b60405180910390f35b61021d6004803603810190610218919061199f565b610b8f565b005b61023960048036038101906102349190611d28565b610ce2565b604051610246919061192c565b60405180910390f35b610257610f6c565b6040516102649190611dc4565b60405180910390f35b610275610f8f565b604051610282919061192c565b60405180910390f35b6102a560048036038101906102a09190611a3b565b610f95565b005b6102c160048036038101906102bc9190611ddd565b6112a4565b6040516102ce919061192c565b60405180910390f35b6102f160048036038101906102ec91906118f2565b6115a3565b6040516102fe919061192c565b60405180910390f35b610321600480360381019061031c91906118f2565b6116b4565b60405161033699989796959493929190611b63565b60405180910390f35b5f815f8111801561035257506001548111155b610391576040517f08c379a000000000000000000000000000000000000000000000000000000000815260040161038890611eaf565b60405180910390fd5b823373ffffffffffffffffffffffffffffffffffffffff1660025f8381526020019081526020015f2060050160019054906101000a900473ffffffffffffffffffffffffffffffffffffffff1673ffffffffffffffffffffffffffffffffffffffff16148061044a57505f8054906101000a900473ffffffffffffffffffffffffffffffffffffffff1673ffffffffffffffffffffffffffffffffffffffff163373ffffffffffffffffffffffffffffffffffffffff16145b610489576040517f08c379a000000000000000000000000000000000000000000000000000000000815260040161048090611f3d565b60405180910390fd5b8360025f8281526020019081526020015f206005015f9054906101000a900460ff16156104eb576040517f08c379a00000000000000000000000000000000000000000000000000000000081526004016104e290611fa5565b60405180910390fd5b5f60025f8781526020019081526020015f20905080600401544211610545576040517f08c379a000000000000000000000000000000000000000000000000000000000815260040161053c9061200d565b60405180910390fd5b5f61054f876115a3565b90506001826005015f6101000a81548160ff021916908315150217905550867f67d82b1b182df045662f3a6bad97695da6985ba731e94610accb92fb60ad95a28260405161059d919061192c565b60405180910390a28095505050505050919050565b5f8054906101000a900473ffffffffffffffffffffffffffffffffffffffff1673ffffffffffffffffffffffffffffffffffffffff163373ffffffffffffffffffffffffffffffffffffffff161461063f576040517f08c379a00000000000000000000000000000000000000000000000000000000081526004016106369061209b565b60405180910390fd5b5f8054906101000a900473ffffffffffffffffffffffffffffffffffffffff1673ffffffffffffffffffffffffffffffffffffffff168173ffffffffffffffffffffffffffffffffffffffff16036106cc576040517f08c379a00000000000000000000000000000000000000000000000000000000081526004016106c390612103565b60405180910390fd5b5f60035f8373ffffffffffffffffffffffffffffffffffffffff1673ffffffffffffffffffffffffffffffffffffffff1681526020019081526020015f205f6101000a81548160ff02191690831515021790555050565b6003602052805f5260405f205f915054906101000a900460ff1681565b5f825f8111801561075357506001548111155b610792576040517f08c379a000000000000000000000000000000000000000000000000000000000815260040161078990611eaf565b60405180910390fd5b60025f8581526020019081526020015f206008015f8473ffffffffffffffffffffffffffffffffffffffff1673ffffffffffffffffffffffffffffffffffffffff1681526020019081526020015f205f9054906101000a900460ff1691505092915050565b5f6060805f855f8111801561080e57506001548111155b61084d576040517f08c379a000000000000000000000000000000000000000000000000000000000815260040161084490611eaf565b60405180910390fd5b5f86118015610870575060025f8881526020019081526020015f20600701548611155b6108af576040517f08c379a00000000000000000000000000000000000000000000000000000000081526004016108a69061216b565b60405180910390fd5b5f60025f8981526020019081526020015f206006015f8881526020019081526020015f209050805f0154816001018260020183600301548280546108f2906121b6565b80601f016020809104026020016040519081016040528092919081815260200182805461091e906121b6565b80156109695780601f1061094057610100808354040283529160200191610969565b820191905f5260205f20905b81548152906001019060200180831161094c57829003601f168201915b5050505050925081805461097c906121b6565b80601f01602080910402602001604051908101604052809291908181526020018280546109a8906121b6565b80156109f35780601f106109ca576101008083540402835291602001916109f3565b820191905f5260205f20905b8154815290600101906020018083116109d657829003601f168201915b505050505091509550955095509550505092959194509250565b6002602052805f5260405f205f91509050805f015490806001018054610a32906121b6565b80601f0160208091040260200160405190810160405280929190818152602001828054610a5e906121b6565b8015610aa95780601f10610a8057610100808354040283529160200191610aa9565b820191905f5260205f20905b815481529060010190602001808311610a8c57829003601f168201915b505050505090806002018054610abe906121b6565b80601f0160208091040260200160405190810160405280929190818152602001828054610aea906121b6565b8015610b355780601f10610b0c57610100808354040283529160200191610b35565b820191905f5260205f20905b815481529060010190602001808311610b1857829003601f168201915b505050505090806003015490806004015490806005015f9054906101000a900460ff16908060050160019054906101000a900473ffffffffffffffffffffffffffffffffffffffff16908060070154908060090154905089565b5f8054906101000a900473ffffffffffffffffffffffffffffffffffffffff1673ffffffffffffffffffffffffffffffffffffffff163373ffffffffffffffffffffffffffffffffffffffff1614610c1c576040517f08c379a0000000000000000000000000000000000000000000000000000000008152600401610c139061209b565b60405180910390fd5b5f73ffffffffffffffffffffffffffffffffffffffff168173ffffffffffffffffffffffffffffffffffffffff1603610c8a576040517f08c379a0000000000000000000000000000000000000000000000000000000008152600401610c8190612230565b60405180910390fd5b600160035f8373ffffffffffffffffffffffffffffffffffffffff1673ffffffffffffffffffffffffffffffffffffffff1681526020019081526020015f205f6101000a81548160ff02191690831515021790555050565b5f60035f3373ffffffffffffffffffffffffffffffffffffffff1673ffffffffffffffffffffffffffffffffffffffff1681526020019081526020015f205f9054906101000a900460ff1680610d8257505f8054906101000a900473ffffffffffffffffffffffffffffffffffffffff1673ffffffffffffffffffffffffffffffffffffffff163373ffffffffffffffffffffffffffffffffffffffff16145b610dc1576040517f08c379a0000000000000000000000000000000000000000000000000000000008152600401610db8906122be565b60405180910390fd5b42831015610e04576040517f08c379a0000000000000000000000000000000000000000000000000000000008152600401610dfb90612326565b60405180910390fd5b828211610e46576040517f08c379a0000000000000000000000000000000000000000000000000000000008152600401610e3d906123b4565b60405180910390fd5b60015f815480929190610e58906123ff565b91905055505f60015490505f60025f8381526020019081526020015f20905081815f018190555086816001019081610e9091906125e3565b5085816002019081610ea291906125e3565b508481600301819055508381600401819055505f816005015f6101000a81548160ff021916908315150217905550338160050160016101000a81548173ffffffffffffffffffffffffffffffffffffffff021916908373ffffffffffffffffffffffffffffffffffffffff1602179055505f81600701819055505f8160090181905550817f86a3370600c4089c572e5fa1f974825253da2be6295eb9e0eef3423aebd991b08833604051610f579291906126b2565b60405180910390a28192505050949350505050565b5f8054906101000a900473ffffffffffffffffffffffffffffffffffffffff1681565b60015481565b815f81118015610fa757506001548111155b610fe6576040517f08c379a0000000000000000000000000000000000000000000000000000000008152600401610fdd90611eaf565b60405180910390fd5b8260025f8281526020019081526020015f2060030154421015801561101f575060025f8281526020019081526020015f20600401544211155b61105e576040517f08c379a00000000000000000000000000000000000000000000000000000000081526004016110559061272a565b60405180910390fd5b8360025f8281526020019081526020015f206005015f9054906101000a900460ff16156110c0576040517f08c379a00000000000000000000000000000000000000000000000000000000081526004016110b790611fa5565b60405180910390fd5b5f60025f8781526020019081526020015f209050806008015f3373ffffffffffffffffffffffffffffffffffffffff1673ffffffffffffffffffffffffffffffffffffffff1681526020019081526020015f205f9054906101000a900460ff1615611160576040517f08c379a0000000000000000000000000000000000000000000000000000000008152600401611157906127b8565b60405180910390fd5b5f85118015611173575080600701548511155b6111b2576040517f08c379a00000000000000000000000000000000000000000000000000000000081526004016111a99061216b565b60405180910390fd5b6001816008015f3373ffffffffffffffffffffffffffffffffffffffff1673ffffffffffffffffffffffffffffffffffffffff1681526020019081526020015f205f6101000a81548160ff021916908315150217905550806006015f8681526020019081526020015f206003015f81548092919061122f906123ff565b9190505550806009015f815480929190611248906123ff565b91905055503373ffffffffffffffffffffffffffffffffffffffff16867f2acce567deca3aabf56327adbb4524bd5318936eaefa69e3a5208ffda0cfec0987604051611294919061192c565b60405180910390a3505050505050565b5f835f811180156112b757506001548111155b6112f6576040517f08c379a00000000000000000000000000000000000000000000000000000000081526004016112ed90611eaf565b60405180910390fd5b843373ffffffffffffffffffffffffffffffffffffffff1660025f8381526020019081526020015f2060050160019054906101000a900473ffffffffffffffffffffffffffffffffffffffff1673ffffffffffffffffffffffffffffffffffffffff1614806113af57505f8054906101000a900473ffffffffffffffffffffffffffffffffffffffff1673ffffffffffffffffffffffffffffffffffffffff163373ffffffffffffffffffffffffffffffffffffffff16145b6113ee576040517f08c379a00000000000000000000000000000000000000000000000000000000081526004016113e590611f3d565b60405180910390fd5b8560025f8281526020019081526020015f206005015f9054906101000a900460ff1615611450576040517f08c379a000000000000000000000000000000000000000000000000000000000815260040161144790611fa5565b60405180910390fd5b5f865111611493576040517f08c379a000000000000000000000000000000000000000000000000000000000815260040161148a90612820565b60405180910390fd5b5f60025f8981526020019081526020015f209050806003015442106114ed576040517f08c379a00000000000000000000000000000000000000000000000000000000081526004016114e4906128ae565b60405180910390fd5b806007015f815480929190611501906123ff565b91905055505f816007015490505f826006015f8381526020019081526020015f20905081815f01819055508881600101908161153d91906125e3565b508781600201908161154f91906125e3565b505f8160030181905550897fed8911b3df733b7d5f75724158e54478ea12e30f49c9d31b5261879f5b76586f838b60405161158b9291906128cc565b60405180910390a28196505050505050509392505050565b5f815f811180156115b657506001548111155b6115f5576040517f08c379a00000000000000000000000000000000000000000000000000000000081526004016115ec90611eaf565b60405180910390fd5b5f60025f8581526020019081526020015f2090505f80600190505b826007015481116116695781836006015f8381526020019081526020015f2060030154111561165657826006015f8281526020019081526020015f206003015491508094505b8080611661906123ff565b915050611610565b505f84116116ac576040517f08c379a00000000000000000000000000000000000000000000000000000000081526004016116a390612944565b60405180910390fd5b505050919050565b5f6060805f805f805f80895f811180156116d057506001548111155b61170f576040517f08c379a000000000000000000000000000000000000000000000000000000000815260040161170690611eaf565b60405180910390fd5b5f60025f8d81526020019081526020015f209050805f0154816001018260020183600301548460040154856005015f9054906101000a900460ff168660050160019054906101000a900473ffffffffffffffffffffffffffffffffffffffff1687600701548860090154878054611785906121b6565b80601f01602080910402602001604051908101604052809291908181526020018280546117b1906121b6565b80156117fc5780601f106117d3576101008083540402835291602001916117fc565b820191905f5260205f20905b8154815290600101906020018083116117df57829003601f168201915b5050505050975086805461180f906121b6565b80601f016020809104026020016040519081016040528092919081815260200182805461183b906121b6565b80156118865780601f1061185d57610100808354040283529160200191611886565b820191905f5260205f20905b81548152906001019060200180831161186957829003601f168201915b505050505096509a509a509a509a509a509a509a509a509a5050509193959799909294969850565b5f604051905090565b5f80fd5b5f80fd5b5f819050919050565b6118d1816118bf565b81146118db575f80fd5b50565b5f813590506118ec816118c8565b92915050565b5f60208284031215611907576119066118b7565b5b5f611914848285016118de565b91505092915050565b611926816118bf565b82525050565b5f60208201905061193f5f83018461191d565b92915050565b5f73ffffffffffffffffffffffffffffffffffffffff82169050919050565b5f61196e82611945565b9050919050565b61197e81611964565b8114611988575f80fd5b50565b5f8135905061199981611975565b92915050565b5f602082840312156119b4576119b36118b7565b5b5f6119c18482850161198b565b91505092915050565b5f8115159050919050565b6119de816119ca565b82525050565b5f6020820190506119f75f8301846119d5565b92915050565b5f8060408385031215611a1357611a126118b7565b5b5f611a20858286016118de565b9250506020611a318582860161198b565b9150509250929050565b5f8060408385031215611a5157611a506118b7565b5b5f611a5e858286016118de565b9250506020611a6f858286016118de565b9150509250929050565b5f81519050919050565b5f82825260208201905092915050565b5f5b83811015611ab0578082015181840152602081019050611a95565b5f8484015250505050565b5f601f19601f8301169050919050565b5f611ad582611a79565b611adf8185611a83565b9350611aef818560208601611a93565b611af881611abb565b840191505092915050565b5f608082019050611b165f83018761191d565b8181036020830152611b288186611acb565b90508181036040830152611b3c8185611acb565b9050611b4b606083018461191d565b95945050505050565b611b5d81611964565b82525050565b5f61012082019050611b775f83018c61191d565b8181036020830152611b89818b611acb565b90508181036040830152611b9d818a611acb565b9050611bac606083018961191d565b611bb9608083018861191d565b611bc660a08301876119d5565b611bd360c0830186611b54565b611be060e083018561191d565b611bee61010083018461191d565b9a9950505050505050505050565b5f80fd5b5f80fd5b7f4e487b71000000000000000000000000000000000000000000000000000000005f52604160045260245ffd5b611c3a82611abb565b810181811067ffffffffffffffff82111715611c5957611c58611c04565b5b80604052505050565b5f611c6b6118ae565b9050611c778282611c31565b919050565b5f67ffffffffffffffff821115611c9657611c95611c04565b5b611c9f82611abb565b9050602081019050919050565b828183375f83830152505050565b5f611ccc611cc784611c7c565b611c62565b905082815260208101848484011115611ce857611ce7611c00565b5b611cf3848285611cac565b509392505050565b5f82601f830112611d0f57611d0e611bfc565b5b8135611d1f848260208601611cba565b91505092915050565b5f805f8060808587031215611d4057611d3f6118b7565b5b5f85013567ffffffffffffffff811115611d5d57611d5c6118bb565b5b611d6987828801611cfb565b945050602085013567ffffffffffffffff811115611d8a57611d896118bb565b5b611d9687828801611cfb565b9350506040611da7878288016118de565b9250506060611db8878288016118de565b91505092959194509250565b5f602082019050611dd75f830184611b54565b92915050565b5f805f60608486031215611df457611df36118b7565b5b5f611e01868287016118de565b935050602084013567ffffffffffffffff811115611e2257611e216118bb565b5b611e2e86828701611cfb565b925050604084013567ffffffffffffffff811115611e4f57611e4e6118bb565b5b611e5b86828701611cfb565b9150509250925092565b7f456c656374696f6e20646f6573206e6f742065786973740000000000000000005f82015250565b5f611e99601783611a83565b9150611ea482611e65565b602082019050919050565b5f6020820190508181035f830152611ec681611e8d565b9050919050565b7f4f6e6c7920656c656374696f6e2061646d696e2063616e2063616c6c207468695f8201527f732066756e6374696f6e00000000000000000000000000000000000000000000602082015250565b5f611f27602a83611a83565b9150611f3282611ecd565b604082019050919050565b5f6020820190508181035f830152611f5481611f1b565b9050919050565b7f456c656374696f6e20697320616c72656164792066696e616c697a65640000005f82015250565b5f611f8f601d83611a83565b9150611f9a82611f5b565b602082019050919050565b5f6020820190508181035f830152611fbc81611f83565b9050919050565b7f456c656374696f6e20686173206e6f7420656e646564207965740000000000005f82015250565b5f611ff7601a83611a83565b915061200282611fc3565b602082019050919050565b5f6020820190508181035f83015261202481611feb565b9050919050565b7f4f6e6c79206f776e65722063616e2063616c6c20746869732066756e6374696f5f8201527f6e00000000000000000000000000000000000000000000000000000000000000602082015250565b5f612085602183611a83565b91506120908261202b565b604082019050919050565b5f6020820190508181035f8301526120b281612079565b9050919050565b7f43616e6e6f742072656d6f7665206f776e65722061732061646d696e000000005f82015250565b5f6120ed601c83611a83565b91506120f8826120b9565b602082019050919050565b5f6020820190508181035f83015261211a816120e1565b9050919050565b7f496e76616c69642063616e6469646174650000000000000000000000000000005f82015250565b5f612155601183611a83565b915061216082612121565b602082019050919050565b5f6020820190508181035f83015261218281612149565b9050919050565b7f4e487b71000000000000000000000000000000000000000000000000000000005f52602260045260245ffd5b5f60028204905060018216806121cd57607f821691505b6020821081036121e0576121df612189565b5b50919050565b7f496e76616c6964206164647265737300000000000000000000000000000000005f82015250565b5f61221a600f83611a83565b9150612225826121e6565b602082019050919050565b5f6020820190508181035f8301526122478161220e565b9050919050565b7f4f6e6c792061646d696e2063616e2063616c6c20746869732066756e6374696f5f8201527f6e00000000000000000000000000000000000000000000000000000000000000602082015250565b5f6122a8602183611a83565b91506122b38261224e565b604082019050919050565b5f6020820190508181035f8301526122d58161229c565b9050919050565b7f53746172742074696d65206d75737420626520696e20746865206675747572655f82015250565b5f612310602083611a83565b915061231b826122dc565b602082019050919050565b5f6020820190508181035f83015261233d81612304565b9050919050565b7f456e642074696d65206d7573742062652061667465722073746172742074696d5f8201527f6500000000000000000000000000000000000000000000000000000000000000602082015250565b5f61239e602183611a83565b91506123a982612344565b604082019050919050565b5f6020820190508181035f8301526123cb81612392565b9050919050565b7f4e487b71000000000000000000000000000000000000000000000000000000005f52601160045260245ffd5b5f612409826118bf565b91507fffffffffffffffffffffffffffffffffffffffffffffffffffffffffffffffff820361243b5761243a6123d2565b5b600182019050919050565b5f819050815f5260205f209050919050565b5f6020601f8301049050919050565b5f82821b905092915050565b5f600883026124a27fffffffffffffffffffffffffffffffffffffffffffffffffffffffffffffffff82612467565b6124ac8683612467565b95508019841693508086168417925050509392505050565b5f819050919050565b5f6124e76124e26124dd846118bf565b6124c4565b6118bf565b9050919050565b5f819050919050565b612500836124cd565b61251461250c826124ee565b848454612473565b825550505050565b5f90565b61252861251c565b6125338184846124f7565b505050565b5b818110156125565761254b5f82612520565b600181019050612539565b5050565b601f82111561259b5761256c81612446565b61257584612458565b81016020851015612584578190505b61259861259085612458565b830182612538565b50505b505050565b5f82821c905092915050565b5f6125bb5f19846008026125a0565b1980831691505092915050565b5f6125d383836125ac565b9150826002028217905092915050565b6125ec82611a79565b67ffffffffffffffff81111561260557612604611c04565b5b61260f82546121b6565b61261a82828561255a565b5f60209050601f83116001811461264b575f8415612639578287015190505b61264385826125c8565b8655506126aa565b601f19841661265986612446565b5f5b828110156126805784890151825560018201915060208501945060208101905061265b565b8683101561269d5784890151612699601f8916826125ac565b8355505b6001600288020188555050505b505050505050565b5f6040820190508181035f8301526126ca8185611acb565b90506126d96020830184611b54565b9392505050565b7f456c656374696f6e206973206e6f7420616374697665000000000000000000005f82015250565b5f612714601683611a83565b915061271f826126e0565b602082019050919050565b5f6020820190508181035f83015261274181612708565b9050919050565b7f596f75206861766520616c726561647920766f74656420696e207468697320655f8201527f6c656374696f6e00000000000000000000000000000000000000000000000000602082015250565b5f6127a2602783611a83565b91506127ad82612748565b604082019050919050565b5f6020820190508181035f8301526127cf81612796565b9050919050565b7f43616e646964617465206e616d652063616e6e6f7420626520656d70747900005f82015250565b5f61280a601e83611a83565b9150612815826127d6565b602082019050919050565b5f6020820190508181035f830152612837816127fe565b9050919050565b7f43616e6e6f74206164642063616e64696461746520616674657220656c6563745f8201527f696f6e2068617320737461727465640000000000000000000000000000000000602082015250565b5f612898602f83611a83565b91506128a38261283e565b604082019050919050565b5f6020820190508181035f8301526128c58161288c565b9050919050565b5f6040820190506128df5f83018561191d565b81810360208301526128f18184611acb565b90509392505050565b7f4e6f20766f746573206361737420696e207468697320656c656374696f6e00005f82015250565b5f61292e601e83611a83565b9150612939826128fa565b602082019050919050565b5f6020820190508181035f83015261295b81612922565b905091905056fea26469706673582212205fee558f7249ed8c8cd0ee6fa87f355ff84d90b3561589319ad72950f66c229c64736f6c63430008150033",
  "immutableReferences": {},
  "source": "// SPDX-License-Identifier: MIT\r\npragma solidity ^0.8.17;\r\n\r\n/**\r\n * @title Decentralized Voting System\r\n * @dev Implements a secure, transparent voting system on the blockchain\r\n */\r\ncontract DecentralizedVotingSystem {\r\n    // Structs\r\n    struct Candidate {\r\n        uint256 id;\r\n        string name;\r\n        string details;    // IPFS hash for candidate details\r\n        uint256 voteCount;\r\n    }\r\n\r\n    struct Election {\r\n        uint256 id;\r\n        string title;\r\n        string description; // IPFS hash for election details\r\n        uint256 startTime;\r\n        uint256 endTime;\r\n        bool finalized;\r\n        address admin;\r\n        mapping(uint256 => Candidate) candidates;\r\n        uint256 candidateCount;\r\n        mapping(address => bool) hasVoted;\r\n        uint256 totalVotes;\r\n    }\r\n\r\n    // State variables\r\n    address public owner;\r\n    uint256 public electionCount;\r\n    mapping(uint256 => Election) public elections;\r\n    mapping(address => bool) public admins;\r\n    \r\n    // Events\r\n    event ElectionCreated(uint256 indexed electionId, string title, address admin);\r\n    event CandidateAdded(uint256 indexed electionId, uint256 candidateId, string name);\r\n    event VoteCast(uint256 indexed electionId, address indexed voter, uint256 candidateId);\r\n    event ElectionFinalized(uint256 indexed electionId, uint256 winningCandidateId);\r\n\r\n    // Modifiers\r\n    modifier onlyOwner() {\r\n        require(msg.sender == owner, \"Only owner can call this function\");\r\n        _;\r\n    }\r\n\r\n    modifier onlyAdmin() {\r\n        require(admins[msg.sender] || msg.sender == owner, \"Only admin can call this function\");\r\n        _;\r\n    }\r\n\r\n    modifier electionExists(uint256 _electionId) {\r\n        require(_electionId > 0 && _electionId <= electionCount, \"Election does not exist\");\r\n        _;\r\n    }\r\n\r\n    modifier electionAdmin(uint256 _electionId) {\r\n        require(\r\n            elections[_electionId].admin == msg.sender || msg.sender == owner,\r\n            \"Only election admin can call this function\"\r\n        );\r\n        _;\r\n    }\r\n\r\n    modifier electionActive(uint256 _electionId) {\r\n        require(\r\n            block.timestamp >= elections[_electionId].startTime && \r\n            block.timestamp <= elections[_electionId].endTime,\r\n            \"Election is not active\"\r\n        );\r\n        _;\r\n    }\r\n\r\n    modifier electionNotFinalized(uint256 _electionId) {\r\n        require(!elections[_electionId].finalized, \"Election is already finalized\");\r\n        _;\r\n    }\r\n\r\n    // Constructor\r\n    constructor() {\r\n        owner = msg.sender;\r\n        admins[msg.sender] = true;\r\n        electionCount = 0;\r\n    }\r\n\r\n    /**\r\n     * @dev Add a new admin\r\n     * @param _admin Address of the new admin\r\n     */\r\n    function addAdmin(address _admin) external onlyOwner {\r\n        require(_admin != address(0), \"Invalid address\");\r\n        admins[_admin] = true;\r\n    }\r\n\r\n    /**\r\n     * @dev Remove an admin\r\n     * @param _admin Address of the admin to remove\r\n     */\r\n    function removeAdmin(address _admin) external onlyOwner {\r\n        require(_admin != owner, \"Cannot remove owner as admin\");\r\n        admins[_admin] = false;\r\n    }\r\n\r\n    /**\r\n     * @dev Create a new election\r\n     * @param _title Title of the election\r\n     * @param _description IPFS hash containing election details\r\n     * @param _startTime Start time of the election (Unix timestamp)\r\n     * @param _endTime End time of the election (Unix timestamp)\r\n     * @return electionId ID of the newly created election\r\n     */\r\n    function createElection(\r\n        string memory _title,\r\n        string memory _description,\r\n        uint256 _startTime,\r\n        uint256 _endTime\r\n    ) external onlyAdmin returns (uint256) {\r\n        require(_startTime >= block.timestamp, \"Start time must be in the future\");\r\n        require(_endTime > _startTime, \"End time must be after start time\");\r\n\r\n        electionCount++;\r\n        uint256 electionId = electionCount;\r\n        \r\n        Election storage newElection = elections[electionId];\r\n        newElection.id = electionId;\r\n        newElection.title = _title;\r\n        newElection.description = _description;\r\n        newElection.startTime = _startTime;\r\n        newElection.endTime = _endTime;\r\n        newElection.finalized = false;\r\n        newElection.admin = msg.sender;\r\n        newElection.candidateCount = 0;\r\n        newElection.totalVotes = 0;\r\n\r\n        emit ElectionCreated(electionId, _title, msg.sender);\r\n        return electionId;\r\n    }\r\n\r\n    /**\r\n     * @dev Add a candidate to an election\r\n     * @param _electionId ID of the election\r\n     * @param _name Name of the candidate\r\n     * @param _details IPFS hash containing candidate details\r\n     * @return candidateId ID of the newly added candidate\r\n     */\r\n    function addCandidate(\r\n        uint256 _electionId,\r\n        string memory _name,\r\n        string memory _details\r\n    ) \r\n        external \r\n        electionExists(_electionId)\r\n        electionAdmin(_electionId)\r\n        electionNotFinalized(_electionId)\r\n        returns (uint256)\r\n    {\r\n        require(bytes(_name).length > 0, \"Candidate name cannot be empty\");\r\n        \r\n        Election storage election = elections[_electionId];\r\n        require(block.timestamp < election.startTime, \"Cannot add candidate after election has started\");\r\n        \r\n        election.candidateCount++;\r\n        uint256 candidateId = election.candidateCount;\r\n        \r\n        Candidate storage newCandidate = election.candidates[candidateId];\r\n        newCandidate.id = candidateId;\r\n        newCandidate.name = _name;\r\n        newCandidate.details = _details;\r\n        newCandidate.voteCount = 0;\r\n\r\n        emit CandidateAdded(_electionId, candidateId, _name);\r\n        return candidateId;\r\n    }\r\n\r\n    /**\r\n     * @dev Cast a vote in an election\r\n     * @param _electionId ID of the election\r\n     * @param _candidateId ID of the candidate\r\n     */\r\n    function vote(uint256 _electionId, uint256 _candidateId) \r\n        external \r\n        electionExists(_electionId)\r\n        electionActive(_electionId)\r\n        electionNotFinalized(_electionId)\r\n    {\r\n        Election storage election = elections[_electionId];\r\n        \r\n        require(!election.hasVoted[msg.sender], \"You have already voted in this election\");\r\n        require(_candidateId > 0 && _candidateId <= election.candidateCount, \"Invalid candidate\");\r\n        \r\n        election.hasVoted[msg.sender] = true;\r\n        election.candidates[_candidateId].voteCount++;\r\n        election.totalVotes++;\r\n        \r\n        emit VoteCast(_electionId, msg.sender, _candidateId);\r\n    }\r\n\r\n    /**\r\n     * @dev Finalize an election after it has ended\r\n     * @param _electionId ID of the election\r\n     * @return winningCandidateId ID of the winning candidate\r\n     */\r\n    function finalizeElection(uint256 _electionId) \r\n        external \r\n        electionExists(_electionId)\r\n        electionAdmin(_electionId)\r\n        electionNotFinalized(_electionId)\r\n        returns (uint256)\r\n    {\r\n        Election storage election = elections[_electionId];\r\n        require(block.timestamp > election.endTime, \"Election has not ended yet\");\r\n        \r\n        uint256 winningCandidateId = getWinningCandidate(_electionId);\r\n        election.finalized = true;\r\n        \r\n        emit ElectionFinalized(_electionId, winningCandidateId);\r\n        return winningCandidateId;\r\n    }\r\n\r\n    /**\r\n     * @dev Get candidate details\r\n     * @param _electionId ID of the election\r\n     * @param _candidateId ID of the candidate\r\n     * @return id Candidate ID\r\n     * @return name Candidate name\r\n     * @return details Candidate details (IPFS hash)\r\n     * @return voteCount Number of votes received\r\n     */\r\n    function getCandidate(uint256 _electionId, uint256 _candidateId)\r\n        external\r\n        view\r\n        electionExists(_electionId)\r\n        returns (uint256 id, string memory name, string memory details, uint256 voteCount)\r\n    {\r\n        require(_candidateId > 0 && _candidateId <= elections[_electionId].candidateCount, \"Invalid candidate\");\r\n        \r\n        Candidate storage candidate = elections[_electionId].candidates[_candidateId];\r\n        return (candidate.id, candidate.name, candidate.details, candidate.voteCount);\r\n    }\r\n\r\n    /**\r\n     * @dev Get election details\r\n     * @param _electionId ID of the election\r\n     * @return id Election ID\r\n     * @return title Election title\r\n     * @return description Election description (IPFS hash)\r\n     * @return startTime Start time of the election\r\n     * @return endTime End time of the election\r\n     * @return finalized Whether the election is finalized\r\n     * @return admin Admin address\r\n     * @return candidateCount Number of candidates\r\n     * @return totalVotes Total number of votes cast\r\n     */\r\n    function getElectionDetails(uint256 _electionId)\r\n        external\r\n        view\r\n        electionExists(_electionId)\r\n        returns (\r\n            uint256 id,\r\n            string memory title,\r\n            string memory description,\r\n            uint256 startTime,\r\n            uint256 endTime,\r\n            bool finalized,\r\n            address admin,\r\n            uint256 candidateCount,\r\n            uint256 totalVotes\r\n        )\r\n    {\r\n        Election storage election = elections[_electionId];\r\n        return (\r\n            election.id,\r\n            election.title,\r\n            election.description,\r\n            election.startTime,\r\n            election.endTime,\r\n            election.finalized,\r\n            election.admin,\r\n            election.candidateCount,\r\n            election.totalVotes\r\n        );\r\n    }\r\n\r\n    /**\r\n     * @dev Check if an address has voted in an election\r\n     * @param _electionId ID of the election\r\n     * @param _voter Address of the voter\r\n     * @return True if the address has voted, false otherwise\r\n     */\r\n    function hasVoted(uint256 _electionId, address _voter)\r\n        external\r\n        view\r\n        electionExists(_electionId)\r\n        returns (bool)\r\n    {\r\n        return elections[_electionId].hasVoted[_voter];\r\n    }\r\n\r\n    /**\r\n     * @dev Get the winning candidate ID for an election\r\n     * @param _electionId ID of the election\r\n     * @return winningCandidateId ID of the winning candidate\r\n     */\r\n    function getWinningCandidate(uint256 _electionId)\r\n        public\r\n        view\r\n        electionExists(_electionId)\r\n        returns (uint256 winningCandidateId)\r\n    {\r\n        Election storage election = elections[_electionId];\r\n        uint256 winningVoteCount = 0;\r\n        \r\n        for (uint256 i = 1; i <= election.candidateCount; i++) {\r\n            if (election.candidates[i].voteCount > winningVoteCount) {\r\n                winningVoteCount = election.candidates[i].voteCount;\r\n                winningCandidateId = i;\r\n            }\r\n        }\r\n        \r\n        require(winningCandidateId > 0, \"No votes cast in this election\");\r\n        return winningCandidateId;\r\n    }\r\n}",
  "sourcePath": "C:\\Users\\Miflow\\decentralized-voting-system\\blockchain\\contracts\\DecentralizedVotingSystem.sol",
  "compiler": {
    "name": "solc",
    "version": "0.8.21+commit.d9974bed.Emscripten.clang"
  },
  "schemaVersion": "3.4.16",
  "updatedAt": "2025-03-24T15:29:02.595Z",
  "devdoc": {
    "details": "Implements a secure, transparent voting system on the blockchain",
    "kind": "dev",
    "methods": {
      "addAdmin(address)": {
        "details": "Add a new admin",
        "params": {
          "_admin": "Address of the new admin"
        }
      },
      "addCandidate(uint256,string,string)": {
        "details": "Add a candidate to an election",
        "params": {
          "_details": "IPFS hash containing candidate details",
          "_electionId": "ID of the election",
          "_name": "Name of the candidate"
        },
        "returns": {
          "_0": "candidateId ID of the newly added candidate"
        }
      },
      "createElection(string,string,uint256,uint256)": {
        "details": "Create a new election",
        "params": {
          "_description": "IPFS hash containing election details",
          "_endTime": "End time of the election (Unix timestamp)",
          "_startTime": "Start time of the election (Unix timestamp)",
          "_title": "Title of the election"
        },
        "returns": {
          "_0": "electionId ID of the newly created election"
        }
      },
      "finalizeElection(uint256)": {
        "details": "Finalize an election after it has ended",
        "params": {
          "_electionId": "ID of the election"
        },
        "returns": {
          "_0": "winningCandidateId ID of the winning candidate"
        }
      },
      "getCandidate(uint256,uint256)": {
        "details": "Get candidate details",
        "params": {
          "_candidateId": "ID of the candidate",
          "_electionId": "ID of the election"
        },
        "returns": {
          "details": "Candidate details (IPFS hash)",
          "id": "Candidate ID",
          "name": "Candidate name",
          "voteCount": "Number of votes received"
        }
      },
      "getElectionDetails(uint256)": {
        "details": "Get election details",
        "params": {
          "_electionId": "ID of the election"
        },
        "returns": {
          "admin": "Admin address",
          "candidateCount": "Number of candidates",
          "description": "Election description (IPFS hash)",
          "endTime": "End time of the election",
          "finalized": "Whether the election is finalized",
          "id": "Election ID",
          "startTime": "Start time of the election",
          "title": "Election title",
          "totalVotes": "Total number of votes cast"
        }
      },
      "getWinningCandidate(uint256)": {
        "details": "Get the winning candidate ID for an election",
        "params": {
          "_electionId": "ID of the election"
        },
        "returns": {
          "winningCandidateId": "ID of the winning candidate"
        }
      },
      "hasVoted(uint256,address)": {
        "details": "Check if an address has voted in an election",
        "params": {
          "_electionId": "ID of the election",
          "_voter": "Address of the voter"
        },
        "returns": {
          "_0": "True if the address has voted, false otherwise"
        }
      },
      "removeAdmin(address)": {
        "details": "Remove an admin",
        "params": {
          "_admin": "Address of the admin to remove"
        }
      },
      "vote(uint256,uint256)": {
        "details": "Cast a vote in an election",
        "params": {
          "_candidateId": "ID of the candidate",
          "_electionId": "ID of the election"
        }
      }
    },
    "title": "Decentralized Voting System",
    "version": 1
  },
  "userdoc": {
    "kind": "user",
    "methods": {},
    "version": 1
  }
}