{
  "contractName": "ImprovedDecentralizedVotingSystem",
  "abi": [
    {
      "inputs": [],
      "stateMutability": "nonpayable",
      "type": "constructor"
    },
    {
      "anonymous": false,
      "inputs": [
        {
          "indexed": true,
          "internalType": "uint256",
          "name": "electionId",
          "type": "uint256"
        },
        {
          "indexed": false,
          "internalType": "uint256",
          "name": "candidateId",
          "type": "uint256"
        },
        {
          "indexed": false,
          "internalType": "string",
          "name": "name",
          "type": "string"
        }
      ],
      "name": "CandidateAdded",
      "type": "event"
    },
    {
      "anonymous": false,
      "inputs": [
        {
          "indexed": true,
          "internalType": "uint256",
          "name": "electionId",
          "type": "uint256"
        },
        {
          "indexed": false,
          "internalType": "string",
          "name": "title",
          "type": "string"
        },
        {
          "indexed": false,
          "internalType": "enum ImprovedDecentralizedVotingSystem.ElectionType",
          "name": "electionType",
          "type": "uint8"
        },
        {
          "indexed": false,
          "internalType": "address",
          "name": "admin",
          "type": "address"
        }
      ],
      "name": "ElectionCreated",
      "type": "event"
    },
    {
      "anonymous": false,
      "inputs": [
        {
          "indexed": true,
          "internalType": "uint256",
          "name": "electionId",
          "type": "uint256"
        },
        {
          "indexed": false,
          "internalType": "uint256",
          "name": "winningCandidateId",
          "type": "uint256"
        }
      ],
      "name": "ElectionFinalized",
      "type": "event"
    },
    {
      "anonymous": false,
      "inputs": [
        {
          "indexed": true,
          "internalType": "uint256",
          "name": "electionId",
          "type": "uint256"
        },
        {
          "indexed": false,
          "internalType": "enum ImprovedDecentralizedVotingSystem.ElectionStatus",
          "name": "newStatus",
          "type": "uint8"
        }
      ],
      "name": "ElectionStatusChanged",
      "type": "event"
    },
    {
      "anonymous": false,
      "inputs": [
        {
          "indexed": true,
          "internalType": "bytes32",
          "name": "organizationId",
          "type": "bytes32"
        },
        {
          "indexed": false,
          "internalType": "string",
          "name": "name",
          "type": "string"
        }
      ],
      "name": "OrganizationCreated",
      "type": "event"
    },
    {
      "anonymous": false,
      "inputs": [
        {
          "indexed": true,
          "internalType": "bytes32",
          "name": "role",
          "type": "bytes32"
        },
        {
          "indexed": true,
          "internalType": "address",
          "name": "account",
          "type": "address"
        }
      ],
      "name": "RoleGranted",
      "type": "event"
    },
    {
      "anonymous": false,
      "inputs": [
        {
          "indexed": true,
          "internalType": "bytes32",
          "name": "role",
          "type": "bytes32"
        },
        {
          "indexed": true,
          "internalType": "address",
          "name": "account",
          "type": "address"
        }
      ],
      "name": "RoleRevoked",
      "type": "event"
    },
    {
      "anonymous": false,
      "inputs": [
        {
          "indexed": true,
          "internalType": "uint256",
          "name": "electionId",
          "type": "uint256"
        },
        {
          "indexed": true,
          "internalType": "address",
          "name": "voter",
          "type": "address"
        },
        {
          "indexed": false,
          "internalType": "uint256",
          "name": "candidateId",
          "type": "uint256"
        },
        {
          "indexed": false,
          "internalType": "uint256",
          "name": "voteReceipt",
          "type": "uint256"
        }
      ],
      "name": "VoteCast",
      "type": "event"
    },
    {
      "anonymous": false,
      "inputs": [
        {
          "indexed": true,
          "internalType": "uint256",
          "name": "electionId",
          "type": "uint256"
        },
        {
          "indexed": true,
          "internalType": "address",
          "name": "voter",
          "type": "address"
        },
        {
          "indexed": false,
          "internalType": "enum ImprovedDecentralizedVotingSystem.VoterStatus",
          "name": "status",
          "type": "uint8"
        }
      ],
      "name": "VoterRegistered",
      "type": "event"
    },
    {
      "anonymous": false,
      "inputs": [
        {
          "indexed": true,
          "internalType": "uint256",
          "name": "electionId",
          "type": "uint256"
        },
        {
          "indexed": true,
          "internalType": "address",
          "name": "voter",
          "type": "address"
        },
        {
          "indexed": false,
          "internalType": "enum ImprovedDecentralizedVotingSystem.VoterStatus",
          "name": "newStatus",
          "type": "uint8"
        },
        {
          "indexed": false,
          "internalType": "address",
          "name": "approver",
          "type": "address"
        }
      ],
      "name": "VoterStatusUpdated",
      "type": "event"
    },
    {
      "inputs": [],
      "name": "AUDITOR_ROLE",
      "outputs": [
        {
          "internalType": "bytes32",
          "name": "",
          "type": "bytes32"
        }
      ],
      "stateMutability": "view",
      "type": "function"
    },
    {
      "inputs": [],
      "name": "ELECTION_ADMIN_ROLE",
      "outputs": [
        {
          "internalType": "bytes32",
          "name": "",
          "type": "bytes32"
        }
      ],
      "stateMutability": "view",
      "type": "function"
    },
    {
      "inputs": [],
      "name": "SUPER_ADMIN_ROLE",
      "outputs": [
        {
          "internalType": "bytes32",
          "name": "",
          "type": "bytes32"
        }
      ],
      "stateMutability": "view",
      "type": "function"
    },
    {
      "inputs": [],
      "name": "VOTER_ROLE",
      "outputs": [
        {
          "internalType": "bytes32",
          "name": "",
          "type": "bytes32"
        }
      ],
      "stateMutability": "view",
      "type": "function"
    },
    {
      "inputs": [
        {
          "internalType": "uint256",
          "name": "",
          "type": "uint256"
        },
        {
          "internalType": "uint256",
          "name": "",
          "type": "uint256"
        }
      ],
      "name": "candidates",
      "outputs": [
        {
          "internalType": "uint256",
          "name": "id",
          "type": "uint256"
        },
        {
          "internalType": "string",
          "name": "name",
          "type": "string"
        },
        {
          "internalType": "string",
          "name": "details",
          "type": "string"
        },
        {
          "internalType": "uint256",
          "name": "voteCount",
          "type": "uint256"
        },
        {
          "internalType": "bool",
          "name": "isActive",
          "type": "bool"
        }
      ],
      "stateMutability": "view",
      "type": "function"
    },
    {
      "inputs": [],
      "name": "electionCount",
      "outputs": [
        {
          "internalType": "uint256",
          "name": "",
          "type": "uint256"
        }
      ],
      "stateMutability": "view",
      "type": "function"
    },
    {
      "inputs": [
        {
          "internalType": "uint256",
          "name": "",
          "type": "uint256"
        }
      ],
      "name": "electionInfo",
      "outputs": [
        {
          "internalType": "uint256",
          "name": "id",
          "type": "uint256"
        },
        {
          "internalType": "string",
          "name": "title",
          "type": "string"
        },
        {
          "internalType": "string",
          "name": "description",
          "type": "string"
        },
        {
          "internalType": "uint256",
          "name": "registrationStartTime",
          "type": "uint256"
        },
        {
          "internalType": "uint256",
          "name": "votingStartTime",
          "type": "uint256"
        },
        {
          "internalType": "uint256",
          "name": "votingEndTime",
          "type": "uint256"
        },
        {
          "internalType": "enum ImprovedDecentralizedVotingSystem.ElectionStatus",
          "name": "status",
          "type": "uint8"
        },
        {
          "internalType": "enum ImprovedDecentralizedVotingSystem.ElectionType",
          "name": "electionType",
          "type": "uint8"
        },
        {
          "internalType": "address",
          "name": "admin",
          "type": "address"
        },
        {
          "internalType": "uint256",
          "name": "candidateCount",
          "type": "uint256"
        },
        {
          "internalType": "uint256",
          "name": "totalVotes",
          "type": "uint256"
        },
        {
          "internalType": "bytes32",
          "name": "organizationId",
          "type": "bytes32"
        },
        {
          "internalType": "string",
          "name": "metadataURI",
          "type": "string"
        }
      ],
      "stateMutability": "view",
      "type": "function"
    },
    {
      "inputs": [
        {
          "internalType": "uint256",
          "name": "",
          "type": "uint256"
        },
        {
          "internalType": "address",
          "name": "",
          "type": "address"
        }
      ],
      "name": "hasVoted",
      "outputs": [
        {
          "internalType": "bool",
          "name": "",
          "type": "bool"
        }
      ],
      "stateMutability": "view",
      "type": "function"
    },
    {
      "inputs": [
        {
          "internalType": "bytes32",
          "name": "",
          "type": "bytes32"
        }
      ],
      "name": "organizations",
      "outputs": [
        {
          "internalType": "bool",
          "name": "",
          "type": "bool"
        }
      ],
      "stateMutability": "view",
      "type": "function"
    },
    {
      "inputs": [],
      "name": "owner",
      "outputs": [
        {
          "internalType": "address",
          "name": "",
          "type": "address"
        }
      ],
      "stateMutability": "view",
      "type": "function"
    },
    {
      "inputs": [
        {
          "internalType": "bytes32",
          "name": "",
          "type": "bytes32"
        },
        {
          "internalType": "address",
          "name": "",
          "type": "address"
        }
      ],
      "name": "roles",
      "outputs": [
        {
          "internalType": "bool",
          "name": "",
          "type": "bool"
        }
      ],
      "stateMutability": "view",
      "type": "function"
    },
    {
      "inputs": [
        {
          "internalType": "uint256",
          "name": "",
          "type": "uint256"
        },
        {
          "internalType": "address",
          "name": "",
          "type": "address"
        }
      ],
      "name": "voterRegistrations",
      "outputs": [
        {
          "internalType": "enum ImprovedDecentralizedVotingSystem.VoterStatus",
          "name": "status",
          "type": "uint8"
        },
        {
          "internalType": "uint256",
          "name": "registrationTime",
          "type": "uint256"
        },
        {
          "internalType": "address",
          "name": "approver",
          "type": "address"
        },
        {
          "internalType": "string",
          "name": "verificationData",
          "type": "string"
        }
      ],
      "stateMutability": "view",
      "type": "function"
    },
    {
      "inputs": [
        {
          "internalType": "uint256",
          "name": "",
          "type": "uint256"
        },
        {
          "internalType": "address",
          "name": "",
          "type": "address"
        }
      ],
      "name": "votingReceipts",
      "outputs": [
        {
          "internalType": "uint256",
          "name": "",
          "type": "uint256"
        }
      ],
      "stateMutability": "view",
      "type": "function"
    },
    {
      "inputs": [
        {
          "internalType": "bytes32",
          "name": "role",
          "type": "bytes32"
        },
        {
          "internalType": "address",
          "name": "account",
          "type": "address"
        }
      ],
      "name": "hasRole",
      "outputs": [
        {
          "internalType": "bool",
          "name": "",
          "type": "bool"
        }
      ],
      "stateMutability": "view",
      "type": "function"
    },
    {
      "inputs": [
        {
          "internalType": "bytes32",
          "name": "role",
          "type": "bytes32"
        },
        {
          "internalType": "address",
          "name": "account",
          "type": "address"
        }
      ],
      "name": "grantRole",
      "outputs": [],
      "stateMutability": "nonpayable",
      "type": "function"
    },
    {
      "inputs": [
        {
          "internalType": "bytes32",
          "name": "role",
          "type": "bytes32"
        },
        {
          "internalType": "address",
          "name": "account",
          "type": "address"
        }
      ],
      "name": "revokeRole",
      "outputs": [],
      "stateMutability": "nonpayable",
      "type": "function"
    },
    {
      "inputs": [
        {
          "internalType": "bytes32",
          "name": "_organizationId",
          "type": "bytes32"
        },
        {
          "internalType": "string",
          "name": "_name",
          "type": "string"
        }
      ],
      "name": "createOrganization",
      "outputs": [],
      "stateMutability": "nonpayable",
      "type": "function"
    },
    {
      "inputs": [
        {
          "internalType": "string",
          "name": "_title",
          "type": "string"
        },
        {
          "internalType": "string",
          "name": "_description",
          "type": "string"
        },
        {
          "internalType": "uint256",
          "name": "_registrationStartTime",
          "type": "uint256"
        },
        {
          "internalType": "uint256",
          "name": "_votingStartTime",
          "type": "uint256"
        },
        {
          "internalType": "uint256",
          "name": "_votingEndTime",
          "type": "uint256"
        },
        {
          "internalType": "enum ImprovedDecentralizedVotingSystem.ElectionType",
          "name": "_electionType",
          "type": "uint8"
        },
        {
          "internalType": "bytes32",
          "name": "_organizationId",
          "type": "bytes32"
        },
        {
          "internalType": "string",
          "name": "_metadataURI",
          "type": "string"
        }
      ],
      "name": "createElection",
      "outputs": [
        {
          "internalType": "uint256",
          "name": "",
          "type": "uint256"
        }
      ],
      "stateMutability": "nonpayable",
      "type": "function"
    },
    {
      "inputs": [
        {
          "internalType": "uint256",
          "name": "_electionId",
          "type": "uint256"
        },
        {
          "internalType": "string",
          "name": "_name",
          "type": "string"
        },
        {
          "internalType": "string",
          "name": "_details",
          "type": "string"
        }
      ],
      "name": "addCandidate",
      "outputs": [
        {
          "internalType": "uint256",
          "name": "",
          "type": "uint256"
        }
      ],
      "stateMutability": "nonpayable",
      "type": "function"
    },
    {
      "inputs": [
        {
          "internalType": "uint256",
          "name": "_electionId",
          "type": "uint256"
        },
        {
          "internalType": "string",
          "name": "_verificationData",
          "type": "string"
        }
      ],
      "name": "registerVoter",
      "outputs": [],
      "stateMutability": "nonpayable",
      "type": "function"
    },
    {
      "inputs": [
        {
          "internalType": "uint256",
          "name": "_electionId",
          "type": "uint256"
        },
        {
          "internalType": "address",
          "name": "_voter",
          "type": "address"
        },
        {
          "internalType": "enum ImprovedDecentralizedVotingSystem.VoterStatus",
          "name": "_newStatus",
          "type": "uint8"
        }
      ],
      "name": "updateVoterStatus",
      "outputs": [],
      "stateMutability": "nonpayable",
      "type": "function"
    },
    {
      "inputs": [
        {
          "internalType": "uint256",
          "name": "_electionId",
          "type": "uint256"
        },
        {
          "internalType": "address[]",
          "name": "_voters",
          "type": "address[]"
        }
      ],
      "name": "bulkApproveVoters",
      "outputs": [],
      "stateMutability": "nonpayable",
      "type": "function"
    },
    {
      "inputs": [
        {
          "internalType": "uint256",
          "name": "_electionId",
          "type": "uint256"
        },
        {
          "internalType": "enum ImprovedDecentralizedVotingSystem.ElectionStatus",
          "name": "_newStatus",
          "type": "uint8"
        }
      ],
      "name": "updateElectionStatus",
      "outputs": [],
      "stateMutability": "nonpayable",
      "type": "function"
    },
    {
      "inputs": [
        {
          "internalType": "uint256",
          "name": "_electionId",
          "type": "uint256"
        },
        {
          "internalType": "uint256",
          "name": "_candidateId",
          "type": "uint256"
        }
      ],
      "name": "vote",
      "outputs": [],
      "stateMutability": "nonpayable",
      "type": "function"
    },
    {
      "inputs": [
        {
          "internalType": "uint256",
          "name": "_electionId",
          "type": "uint256"
        }
      ],
      "name": "finalizeElection",
      "outputs": [],
      "stateMutability": "nonpayable",
      "type": "function"
    },
    {
      "inputs": [
        {
          "internalType": "uint256",
          "name": "_electionId",
          "type": "uint256"
        },
        {
          "internalType": "address",
          "name": "_voter",
          "type": "address"
        }
      ],
      "name": "getVoterRegistration",
      "outputs": [
        {
          "components": [
            {
              "internalType": "enum ImprovedDecentralizedVotingSystem.VoterStatus",
              "name": "status",
              "type": "uint8"
            },
            {
              "internalType": "uint256",
              "name": "registrationTime",
              "type": "uint256"
            },
            {
              "internalType": "address",
              "name": "approver",
              "type": "address"
            },
            {
              "internalType": "string",
              "name": "verificationData",
              "type": "string"
            }
          ],
          "internalType": "struct ImprovedDecentralizedVotingSystem.VoterRegistration",
          "name": "",
          "type": "tuple"
        }
      ],
      "stateMutability": "view",
      "type": "function"
    },
    {
      "inputs": [
        {
          "internalType": "uint256",
          "name": "_electionId",
          "type": "uint256"
        }
      ],
      "name": "getElectionDetails",
      "outputs": [
        {
          "internalType": "uint256",
          "name": "id",
          "type": "uint256"
        },
        {
          "internalType": "string",
          "name": "title",
          "type": "string"
        },
        {
          "internalType": "string",
          "name": "description",
          "type": "string"
        },
        {
          "internalType": "uint256",
          "name": "registrationStartTime",
          "type": "uint256"
        },
        {
          "internalType": "uint256",
          "name": "votingStartTime",
          "type": "uint256"
        },
        {
          "internalType": "uint256",
          "name": "votingEndTime",
          "type": "uint256"
        },
        {
          "internalType": "enum ImprovedDecentralizedVotingSystem.ElectionStatus",
          "name": "status",
          "type": "uint8"
        },
        {
          "internalType": "enum ImprovedDecentralizedVotingSystem.ElectionType",
          "name": "electionType",
          "type": "uint8"
        },
        {
          "internalType": "address",
          "name": "admin",
          "type": "address"
        },
        {
          "internalType": "uint256",
          "name": "candidateCount",
          "type": "uint256"
        },
        {
          "internalType": "uint256",
          "name": "totalVotes",
          "type": "uint256"
        },
        {
          "internalType": "bytes32",
          "name": "organizationId",
          "type": "bytes32"
        },
        {
          "internalType": "string",
          "name": "metadataURI",
          "type": "string"
        }
      ],
      "stateMutability": "view",
      "type": "function"
    },
    {
      "inputs": [
        {
          "internalType": "uint256",
          "name": "_electionId",
          "type": "uint256"
        },
        {
          "internalType": "address",
          "name": "_voter",
          "type": "address"
        },
        {
          "internalType": "uint256",
          "name": "_receipt",
          "type": "uint256"
        }
      ],
      "name": "verifyVoteReceipt",
      "outputs": [
        {
          "internalType": "bool",
          "name": "",
          "type": "bool"
        }
      ],
      "stateMutability": "view",
      "type": "function"
    }
  ],
  "bytecode": "0x608080604052346100d157600080546001600160a01b03191633908117825581527f5973c32df4ea974ddb288f0d7c7a0beeee70d9a6a104f0b6d5f20ddcc0674aa060205260408120547f7613a25ecc738585a232ad50a301178f12b3ba8887d13e138b523c4269c476899060ff1615610084575b50600155612bca90816100d78239f35b80825260026020526040822033835260205260408220600160ff1982541617905533907f2ae6a113c0ed5b78a53413ffbb7679881f11145ccfba4fb92e863dfcd5a1d2f38380a338610074565b600080fdfe6080604052600436101561001257600080fd5b60003560e01c80630ccaa3d7146123905780631537052e1461220d5780632f2ff15d1461214c57806343859632146120ff5780634460bdd6146120c45780635295801e14612038578063661d881d14611fc45780636bc61e1114611bbe5780636e1d616e14611b8357806378be994414611b485780637de1424214611ab9578063855e844114611a715780638679ddbc14611a065780638da5cb5b146119dd57806391d148541461015057806399004888146118da578063997d2830146118bc578063a8ecd56a14611696578063a94015c81461165b578063b384abef14611315578063ba51b14e146112e4578063cf06b552146111d3578063d547741f14611116578063d6eb469114610986578063e6c62efc146104ad578063ef3c5fde14610260578063f6049924146101a25763f8fc08b91461015057600080fd5b3461019d57604036600319011261019d57610169612737565b600435600052600260205260406000209060018060a01b0316600052602052602060ff604060002054166040519015158152f35b600080fd5b3461019d57602036600319011261019d5760043580151580610254575b6101c890612a4c565b6000526004602052604060002080549061025060038201549260048301549060058401549060068501549060078601549060088701549260098801549461021160018a016127c3565b9061022a600a61022360028d016127c3565b9b016127c3565b976040519b8c9b8c9460018060a01b038760101c169760ff808960081c169816966128c0565b0390f35b506001548111156101bf565b3461019d57604036600319011261019d576004356024356001600160401b0380821161019d573660238301121561019d578160040135908111610497578060051b91604051926020926102b5848301866127a2565b84526024838501918301019136831161019d57602401905b828210610478575050508215158061046c575b6102e990612a4c565b7f7613a25ecc738585a232ad50a301178f12b3ba8887d13e138b523c4269c47689600052600292838252604060002033600052825260ff80604060002054168015610444575b61033890612a98565b60005b84518110156104425760008381526006808652604090912061039392916001600160a01b03918261036c858b612af3565b511660005287526001856040600020541661038681612869565b14610398575b5050612a0f565b61033b565b856000528087526040600020826103af858b612af3565b5116600052875260406000208960ff198254161790558560005286526040600020816103db848a612af3565b5116600052865287604060002001336bffffffffffffffffffffffff60a01b82541617905561040a8288612af3565b5116847f143ac71858b5ed24776b08d8780de5c1892160f0441970b72f714c9a1d6183f0604080518b8152338a820152a3878061038c565b005b5060008281526004845260409020600601543360109190911c6001600160a01b03161461032f565b506001548311156102e0565b81356001600160a01b038116810361019d5781529083019083016102cd565b634e487b7160e01b600052604160045260246000fd5b3461019d57606036600319011261019d576024356001600160401b03811161019d576104dd903690600401612957565b6044356001600160401b03811161019d576104fc903690600401612957565b90600435151580610978575b61051190612a4c565b336000908152600080516020612b75833981519152602052604090205460ff16801561094c575b61054190612a98565b600435600052600460205260ff6006604060002001541661056181612869565b6108f4578051156108af57600435600052600460205260076040600020016105898154612a0f565b905560043560005260046020526007604060002001549060405160a081018181106001600160401b0382111761049757604052828152602081019382855260408201526000606082015260016080820152600435600052600360205260406000208360005260205260406000209381518555518051906001600160401b03821161049757819061061c600188015461274d565b601f811161085c575b50602090601f83116001146107ef576000926107e4575b50508160011b916000199060031b1c19161760018501555b60408101519384516001600160401b03811161049757610677600283015461274d565b95601f871161079d575b602096508690601f831160011461072c57918060809492600494600092610721575b50508160011b916000199060031b1c19161760028201555b6060840151600382015501910151151560ff801983541691161790557fed8911b3df733b7d5f75724158e54478ea12e30f49c9d31b5261879f5b76586f60405183815260408582015280610716600435946040830190612873565b0390a2604051908152f35b0151905089806106a3565b90601f1983169160028501600052886000209260005b8181106107865750926001928592600496608098961061076d575b505050811b0160028201556106bb565b015160001960f88460031b161c1916905589808061075d565b92938a600181928786015181550195019301610742565b600283016000526020600020601f830160051c8101602084106107dd575b601f890160051c820181106107d1575050610681565b600081556001016107bb565b50806107bb565b01519050868061063c565b600188016000908152602081209350601f198516905b818110610844575090846001959493921061082b575b505050811b016001850155610654565b015160001960f88460031b161c1916905586808061081b565b92936020600181928786015181550195019301610805565b909150600187016000526020600020601f840160051c8101602085106108a8575b90849392915b601f830160051c82018110610899575050610625565b60008155859450600101610883565b508061087d565b60405162461bcd60e51b815260206004820152601e60248201527f43616e646964617465206e616d652063616e6e6f7420626520656d70747900006044820152606490fd5b60405162461bcd60e51b815260206004820152602a60248201527f43616e206f6e6c79206164642063616e6469646174657320746f20647261667460448201526920656c656374696f6e7360b01b6064820152608490fd5b50600435600052600460205261054160018060a01b0360066040600020015460101c1633149050610538565b506001546004351115610508565b3461019d5761010036600319011261019d576004356001600160401b03811161019d576109b7903690600401612957565b6024356001600160401b03811161019d576109d6903690600401612957565b600360a435101561019d5760e4356001600160401b03811161019d57610a00903690600401612957565b3360009081527ff084a3432e92582535f743c90773a3aa3fdb5eaaa81b6f7bfd95edf93ab2b2236020526040902054909190610a3e9060ff166129c3565b42604435106110c057604435606435111561106557606435608435111561101257600260a43514610fb5575b610a75600154612a0f565b918260015560405191826101a08101106001600160401b036101a085011117610497576101a0830160405283835284602084015260408301526044356060830152606435608083015260843560a0830152600060c083015260a43560e0830152336101008301526000610120830152600061014083015260c43561016083015261018082015281600052600460205260406000208151815560208201518051906001600160401b038211610497578190610b32600185015461274d565b601f8111610f62575b50602090601f8311600114610ef057600092610ee5575b50508160011b916000199060031b1c19161760018201555b60408201518051906001600160401b038211610497578190610b8f600285015461274d565b601f8111610e92575b50602090601f8311600114610e2057600092610e15575b50508160011b916000199060031b1c19161760028201555b606082015160038201556080820151600482015560a082015160058201556006810190610c0160c0840151610bfb81612869565b83612a34565b60e0830151906003821015610dff5782600a92610180945461ff0062010000600160b01b0361010089015160101b169260081b1690610100600160b01b03191617179055610120840151600782015561014084015160088201556101608401516009820155019101518051906001600160401b03821161049757610c85835461274d565b601f8111610db7575b50916020949184938690601f8311600114610d28579180610cfe94927f30da696983d2a7fda52e1dd1ddf74a708834e7469883d498eefdfdef1c9bba309694600092610d1d575b50508160011b916000199060031b1c19161790555b604051918291606083526060830190612873565b610d0c87830160a4356128b3565b3360408301520390a2604051908152f35b015190508980610cd5565b90601f1983169184600052886000209260005b818110610d9d57509260019285927f30da696983d2a7fda52e1dd1ddf74a708834e7469883d498eefdfdef1c9bba309896610cfe989610610d84575b505050811b019055610cea565b015160001960f88460031b161c19169055898080610d77565b828401518555899850600190940193928a01928a01610d3b565b836000526020600020601f840160051c81019160208510610df5575b601f0160051c01905b818110610de95750610c8e565b60008155600101610ddc565b9091508190610dd3565b634e487b7160e01b600052602160045260246000fd5b015190508680610baf565b9250600284016000526020600020906000935b601f1984168510610e77576001945083601f19811610610e5e575b505050811b016002820155610bc7565b015160001960f88460031b161c19169055868080610e4e565b81810151835560209485019460019093019290910190610e33565b909150600284016000526020600020601f840160051c810160208510610ede575b90849392915b601f830160051c82018110610ecf575050610b98565b60008155859450600101610eb9565b5080610eb3565b015190508680610b52565b9250600184016000526020600020906000935b601f1984168510610f47576001945083601f19811610610f2e575b505050811b016001820155610b6a565b015160001960f88460031b161c19169055868080610f1e565b81810151835560209485019460019093019290910190610f03565b909150600184016000526020600020601f840160051c810160208510610fae575b90849392915b601f830160051c82018110610f9f575050610b3b565b60008155859450600101610f89565b5080610f83565b60c435600052600760205260ff60406000205416610a6a5760405162461bcd60e51b815260206004820152601b60248201527f4f7267616e697a6174696f6e20646f6573206e6f7420657869737400000000006044820152606490fd5b60405162461bcd60e51b815260206004820152602560248201527f566f74696e6720656e64206d75737420626520616674657220766f74696e67206044820152641cdd185c9d60da1b6064820152608490fd5b60405162461bcd60e51b815260206004820152602d60248201527f566f74696e67207374617274206d75737420626520616674657220726567697360448201526c1d1c985d1a5bdb881cdd185c9d609a1b6064820152608490fd5b60405162461bcd60e51b815260206004820152602860248201527f526567697374726174696f6e207374617274206d75737420626520696e207468604482015267652066757475726560c01b6064820152608490fd5b3461019d57604036600319011261019d57600435611132612737565b336000908152600080516020612b7583398151915260209081526040909120549192916111619060ff166129c3565b60008281526002825260408082206001600160a01b0390951680835294835290205460ff1661118c57005b81600052600281526040600020908360005252604060002060ff1981541690557f155aaafb6329a2098580462df33ec4b7441b19729b9601c5fc17ae1cf99a8a52600080a3005b3461019d57604036600319011261019d576004356024356001600160401b03811161019d57611206903690600401612957565b336000908152600080516020612b758339815191526020908152604090912054909291906112369060ff166129c3565b816000526007835260ff6040600020541661129f5781927f60323ba021d26a9f11dfa513a54458813272e74c7d669679f8a7d81f30ba24f892600052600781526040600020600160ff1982541617905561129a604051928284938452830190612873565b0390a2005b60405162461bcd60e51b815260048101849052601b60248201527f4f7267616e697a6174696f6e20616c72656164792065786973747300000000006044820152606490fd5b3461019d57602036600319011261019d576004356000526007602052602060ff604060002054166040519015158152f35b3461019d57611323366129ad565b908015158061164f575b61133690612a4c565b80600052602060048152611360600260ff6006604060002001541661135a81612869565b14612b1d565b81600052600481526040600020600481015442101580611641575b15611604578260005260058252604060002033600052825260ff604060002054166115cf57831515806115c1575b15611588578260005260038252604060002084600052825260ff60046040600020015416156115435760ff600682015460081c166003811015610dff57158015611515575b156114d957600890836000526005835260406000203360005283526040600020600160ff1982541617905583600052600383526040600020856000528352600360406000200161143e8154612a0f565b90550161144b8154612a0f565b9055604051818101908382523360601b60408201528460548201524260748201526074815260a08101948186106001600160401b038711176104975760c0928660405282519020938560005260088152604060002090336000525283604060002055855201527f0271f53eebbe20450d9578f28ec279231556c34545b30e2278d754ffd39cd63c60403393a3005b60405162461bcd60e51b81526004810183905260146024820152734e6f7420656c696769626c6520746f20766f746560601b6044820152606490fd5b5082600052600682526040600020336000528252600260ff6040600020541661153d81612869565b146113ee565b60405162461bcd60e51b815260048101839052601760248201527f43616e646964617465206973206e6f74206163746976650000000000000000006044820152606490fd5b60405162461bcd60e51b8152600481018390526011602482015270496e76616c69642063616e64696461746560781b6044820152606490fd5b5060078101548411156113a9565b60405162461bcd60e51b815260048101839052600d60248201526c105b1c9958591e481d9bdd1959609a1b6044820152606490fd5b60405162461bcd60e51b815260048101839052601560248201527413dd5d1cda5919481d9bdd1a5b99c81c195c9a5bd9605a1b6044820152606490fd5b50600581015442111561137b565b5060015481111561132d565b3461019d57600036600319011261019d5760206040517f72c3eec1760bf69946625c2d4fb8e44e2c806345041960b434674fb9ab3976cf8152f35b3461019d57606036600319011261019d576004356116b2612737565b90604435600581101561019d57811515806118b0575b6116d190612a4c565b336000908152600080516020612b75833981519152602090815260409091205460ff168015611888575b61170490612a98565b61170d82612869565b600282148015611875575b8015611862575b1561182d5760008381526006825260408082206001600160a01b0390961680835295835290205460019060ff1661175581612869565b036117db577f143ac71858b5ed24776b08d8780de5c1892160f0441970b72f714c9a1d6183f09160409184600052600681528260002086600052815261179e8284600020612a34565b600085815260068252838120878252825283902060020180546001600160a01b031916331790558251916117d181612869565b82523390820152a3005b6084906040519062461bcd60e51b82526004820152602560248201527f43616e206f6e6c79207570646174652070656e64696e6720726567697374726160448201526474696f6e7360d81b6064820152fd5b6064906040519062461bcd60e51b82526004820152600e60248201526d496e76616c69642073746174757360901b6044820152fd5b5061186c82612869565b6004821461171f565b5061187f82612869565b60038214611718565b5060008381526004825260409020600601543360109190911c6001600160a01b0316146116fb565b506001548211156116c8565b3461019d57600036600319011261019d576020600154604051908152f35b3461019d57604036600319011261019d576004356118f6612737565b6040519161190383612787565b60008352606080602094600086820152600060408201520152801515806119d1575b61192e90612a4c565b60005260068252604060002060018060a01b03809216600052825261025060406000206040519261195e84612787565b60ff82541661196c81612869565b84526001820154918585019283526119946003836002840154169260408801938452016127c3565b926060860193845260405196879681885251906119b082612869565b870152516040860152511660608401525160808084015260a0830190612873565b50600154811115611925565b3461019d57600036600319011261019d576000546040516001600160a01b039091168152602090f35b3461019d57606036600319011261019d57600435611a22612737565b9080151580611a65575b611a3590612a4c565b600052600860205260406000209060018060a01b0316600052602052602060443560406000205414604051908152f35b50600154811115611a2c565b3461019d57604036600319011261019d57611a8a612737565b600435600052600860205260406000209060018060a01b03166000526020526020604060002054604051908152f35b3461019d57611ac7366129ad565b90600052600360205260406000209060005260205260406000208054611aef600183016127c3565b91611afc600282016127c3565b611b3760ff600460038501549401541691611b29604051968796875260a0602088015260a0870190612873565b908582036040870152612873565b916060840152151560808301520390f35b3461019d57600036600319011261019d5760206040517f16f50c1fe196fa8f2d59c3eca367f2f7bf83b35c12ed36436b26d5af3695f5c48152f35b3461019d57600036600319011261019d5760206040517f59a1c48e5837ad7a7f3dcedcbe129bf3249ec4fbf651fd4f5e2600ead39fe2f58152f35b3461019d57604036600319011261019d5760246001600160401b03600435823582811161019d57611bf3903690600401612957565b81151580611fb8575b611c0590612a4c565b816000526020906004825260ff936006948086604060002001541690611c2a82612869565b60018092148015611f59575b15611f1d578560005286855260406000203360005285528060406000205416611c5e81612869565b158015611ef1575b15611ea3578560005260048552866040600020015460081c166003811015611e8e57611e855760036002965b60405190611c9f82612787565b611ca889612869565b888252868201428152604083019160008352606084019788528960005288526040600020336000528852611ceb60406000209351611ce581612869565b84612a34565b5184830155600282019060018060a01b039051166bffffffffffffffffffffffff60a01b825416179055019251968751928311611e715750611d2d835461274d565b601f8111611e28575b508396601f8311600114611da55782917f50c4eea2cde86e1834f6cf12a9c38f1db9d9758cb7d3bb3190b86b5a92eb69809697988392600094611d9a575b50501b916000199060031b1c19161790555b60405193611d9381612869565b84523393a3005b015192508980611d74565b601f9291921982169784600052856000209160005b8a8110611e135750837f50c4eea2cde86e1834f6cf12a9c38f1db9d9758cb7d3bb3190b86b5a92eb698098999a10611dfa575b505050811b019055611d86565b015160001960f88460031b161c19169055878080611ded565b81830151845592850192918701918701611dba565b8360005284600020601f840160051c810191868510611e67575b601f0160051c019082905b828110611e5b575050611d36565b60008155018290611e4d565b9091508190611e42565b634e487b7160e01b60009081526041600452fd5b60038196611c92565b87634e487b7160e01b60005260216004526000fd5b60405162461bcd60e51b8152600481018690526021818a01527f416c72656164792072656769737465726564206f7220626c61636b6c697374656044820152601960fa1b6064820152608490fd5b5085600052868552604060002033600052855260038160406000205416611f1781612869565b14611c66565b60405162461bcd60e51b8152600481018690526015818a0152742932b3b4b9ba3930ba34b7b7103737ba1037b832b760591b6044820152606490fd5b50856000526004855280876040600020015460081c166003811015611fa357158015611c3657508560005260048552600281886040600020015416611f9d81612869565b14611c36565b88634e487b7160e01b60005260216004526000fd5b50600154821115611bfc565b3461019d57602036600319011261019d5760043560005260046020526040600020805490610250611ff7600183016127c3565b612003600284016127c3565b92600381015494600482015492600583015491600684015460078501549260088601549461022a600a600989015498016127c3565b3461019d57604036600319011261019d57612051612737565b6004356000526006602052604060002060018060a01b03809216600052602052604060002061025060ff82541691612097600360018301549560028401541692016127c3565b9060405194846120a78796612869565b855260208501526040840152608060608401526080830190612873565b3461019d57600036600319011261019d5760206040517f7613a25ecc738585a232ad50a301178f12b3ba8887d13e138b523c4269c476898152f35b3461019d57604036600319011261019d57612118612737565b600435600052600560205260406000209060018060a01b0316600052602052602060ff604060002054166040519015158152f35b3461019d57604036600319011261019d57600435612168612737565b336000908152600080516020612b7583398151915260209081526040909120549192916121979060ff166129c3565b60008281526002825260408082206001600160a01b0390951680835294835290205460ff16156121c357005b816000526002815260406000209083600052526040600020600160ff198254161790557f2ae6a113c0ed5b78a53413ffbb7679881f11145ccfba4fb92e863dfcd5a1d2f3600080a3005b3461019d5760208060031936011261019d5760043580151580612384575b61223490612a4c565b7f7613a25ecc738585a232ad50a301178f12b3ba8887d13e138b523c4269c4768960005260028252604060002033600052825260ff60406000205416801561235c575b61228090612a98565b806000526004825260ff600660406000200154169161229e83612869565b6122ab6003809414612b1d565b816000526004815260406000206000906000946001906007830154915b8281111561230c57867f67d82b1b182df045662f3a6bad97695da6985ba731e94610accb92fb60ad95a2878760068801600460ff19825416179055604051908152a2005b8660005281865260406000208160005286528782604060002001541161233b575b61233690612a0f565b6122c8565b6000878152828752604080822083835288529020820154975093508361232d565b5060008181526004835260409020600601543360109190911c6001600160a01b031614612277565b5060015481111561222b565b3461019d57604036600319011261019d5760246004358135600581101561019d578115158061272b575b6123c390612a4c565b336000908152600080516020612b75833981519152602090815260409091205490919060ff168015612703575b6123f990612a98565b826000526004825260406000209361241082612869565b600182036125105760ff60068601541661242981612869565b6124bc5760078501541561247a57506124688160067ffc109e0cb0828ec465b9741a17f547df3009f4e626af452175fbdbf0b1b50fef95965b01612a34565b6040519061247581612869565b8152a2005b606490836040519162461bcd60e51b83528160048401528201527f4d7573742068617665206174206c65617374206f6e652063616e6469646174656044820152fd5b8260286084926040519262461bcd60e51b845260048401528201527f43616e206f6e6c79206d6f766520746f20726567697374726174696f6e2066726044820152671bdb48191c98599d60c21b6064820152fd5b9361251a82612869565b6002820361260f57600160ff60068301541661253581612869565b036125b95760048101544210612575577ffc109e0cb0828ec465b9741a17f547df3009f4e626af452175fbdbf0b1b50fef93945081600661246892612462565b60405162461bcd60e51b815260048101849052601d818701527f566f74696e6720706572696f6420686173206e6f7420737461727465640000006044820152606490fd5b60405162461bcd60e51b8152600481018490526029818701527f43616e206f6e6c79206d6f766520746f206163746976652066726f6d2072656760448201526834b9ba3930ba34b7b760b91b6064820152608490fd5b9361261982612869565b60038214612651575b506124688160067ffc109e0cb0828ec465b9741a17f547df3009f4e626af452175fbdbf0b1b50fef9596612462565b93600260ff60068301541661266581612869565b036126bf576005810154421061267b5793612622565b60405162461bcd60e51b815260048101849052601b818701527f566f74696e6720706572696f6420686173206e6f7420656e64656400000000006044820152606490fd5b60405162461bcd60e51b815260048101849052601d818701527f43616e206f6e6c7920656e642061637469766520656c656374696f6e730000006044820152606490fd5b5060008381526004835260409020600601543360109190911c6001600160a01b0316146123f0565b506001548211156123ba565b602435906001600160a01b038216820361019d57565b90600182811c9216801561277d575b602083101461276757565b634e487b7160e01b600052602260045260246000fd5b91607f169161275c565b608081019081106001600160401b0382111761049757604052565b90601f801991011681019081106001600160401b0382111761049757604052565b90604051918260008254926127d78461274d565b9081845260019485811690816000146128465750600114612803575b5050612801925003836127a2565b565b9093915060005260209081600020936000915b81831061282e575050612801935082010138806127f3565b85548884018501529485019487945091830191612816565b91505061280194506020925060ff191682840152151560051b82010138806127f3565b60051115610dff57565b919082519283825260005b84811061289f575050826000602080949584010152601f8019910116010190565b60208183018101518483018201520161287e565b906003821015610dff5752565b9996926128fc906128ee6129549f9d9a969e9b989461292498948e528d6101a0908160208201520190612873565b8c810360408e015290612873565b9b60608b015260808a015260a089015261291581612869565b60c088015260e08701906128b3565b6001600160a01b031661010085015261012084015261014083015261016082015280830361018090910152612873565b90565b81601f8201121561019d578035906001600160401b038211610497576040519261298b601f8401601f1916602001856127a2565b8284526020838301011161019d57816000926020809301838601378301015290565b604090600319011261019d576004359060243590565b156129ca57565b60405162461bcd60e51b815260206004820152601f60248201527f4163636573732064656e6965643a20726f6c65206e6f74206772616e746564006044820152606490fd5b6000198114612a1e5760010190565b634e487b7160e01b600052601160045260246000fd5b90612a3e81612869565b60ff80198354169116179055565b15612a5357565b60405162461bcd60e51b815260206004820152601760248201527f456c656374696f6e20646f6573206e6f742065786973740000000000000000006044820152606490fd5b15612a9f57565b60405162461bcd60e51b815260206004820152602660248201527f4e6f7420617574686f72697a656420746f206d616e616765207468697320656c60448201526532b1ba34b7b760d11b6064820152608490fd5b8051821015612b075760209160051b010190565b634e487b7160e01b600052603260045260246000fd5b15612b2457565b60405162461bcd60e51b815260206004820152602260248201527f456c656374696f6e206973206e6f7420696e2072657175697265642073746174604482015261757360f01b6064820152608490fdfe5973c32df4ea974ddb288f0d7c7a0beeee70d9a6a104f0b6d5f20ddcc0674aa0a2646970667358221220152c58257b13d5026c4b4ff711f04d64a811966cc184babb1d00ca66552e229264736f6c63430008110033",
  "immutableReferences": {},
  "source": "// SPDX-License-Identifier: MIT\r\npragma solidity ^0.8.17;\r\n\r\n/**\r\n * @title Improved Decentralized Voting System with Enhanced Access Control\r\n * @dev Implements multi-tier access control, better registration flow, and improved security\r\n */\r\ncontract ImprovedDecentralizedVotingSystem {\r\n    // Role definitions\r\n    bytes32 public constant SUPER_ADMIN_ROLE = keccak256(\"SUPER_ADMIN_ROLE\");\r\n    bytes32 public constant ELECTION_ADMIN_ROLE = keccak256(\"ELECTION_ADMIN_ROLE\");\r\n    bytes32 public constant AUDITOR_ROLE = keccak256(\"AUDITOR_ROLE\");\r\n    bytes32 public constant VOTER_ROLE = keccak256(\"VOTER_ROLE\");\r\n\r\n    // Election types\r\n    enum ElectionType { PUBLIC, PRIVATE, ORGANIZATION }\r\n    \r\n    // Election status\r\n    enum ElectionStatus { DRAFT, REGISTRATION, ACTIVE, ENDED, FINALIZED }\r\n    \r\n    // Voter status\r\n    enum VoterStatus { NONE, PENDING, APPROVED, REJECTED, BLACKLISTED }\r\n    \r\n    // Structs\r\n    struct Candidate {\r\n        uint256 id;\r\n        string name;\r\n        string details;\r\n        uint256 voteCount;\r\n        bool isActive;\r\n    }\r\n\r\n    struct ElectionInfo {\r\n        uint256 id;\r\n        string title;\r\n        string description;\r\n        uint256 registrationStartTime;\r\n        uint256 votingStartTime;\r\n        uint256 votingEndTime;\r\n        ElectionStatus status;\r\n        ElectionType electionType;\r\n        address admin;\r\n        uint256 candidateCount;\r\n        uint256 totalVotes;\r\n        bytes32 organizationId;\r\n        string metadataURI;  // For IPFS or other metadata storage\r\n    }\r\n\r\n    struct VoterRegistration {\r\n        VoterStatus status;\r\n        uint256 registrationTime;\r\n        address approver;\r\n        string verificationData;  // For KYC/verification details\r\n    }\r\n\r\n    // State variables\r\n    address public owner;\r\n    uint256 public electionCount;\r\n    \r\n    // Mappings\r\n    mapping(bytes32 => mapping(address => bool)) public roles;\r\n    mapping(uint256 => mapping(uint256 => Candidate)) public candidates;\r\n    mapping(uint256 => ElectionInfo) public electionInfo;\r\n    mapping(uint256 => mapping(address => bool)) public hasVoted;\r\n    mapping(uint256 => mapping(address => VoterRegistration)) public voterRegistrations;\r\n    mapping(bytes32 => bool) public organizations;\r\n    mapping(uint256 => mapping(address => uint256)) public votingReceipts;  // For vote verification\r\n    \r\n    // Events\r\n    event ElectionCreated(uint256 indexed electionId, string title, ElectionType electionType, address admin);\r\n    event CandidateAdded(uint256 indexed electionId, uint256 candidateId, string name);\r\n    event VoterRegistered(uint256 indexed electionId, address indexed voter, VoterStatus status);\r\n    event VoterStatusUpdated(uint256 indexed electionId, address indexed voter, VoterStatus newStatus, address approver);\r\n    event VoteCast(uint256 indexed electionId, address indexed voter, uint256 candidateId, uint256 voteReceipt);\r\n    event ElectionStatusChanged(uint256 indexed electionId, ElectionStatus newStatus);\r\n    event ElectionFinalized(uint256 indexed electionId, uint256 winningCandidateId);\r\n    event OrganizationCreated(bytes32 indexed organizationId, string name);\r\n    event RoleGranted(bytes32 indexed role, address indexed account);\r\n    event RoleRevoked(bytes32 indexed role, address indexed account);\r\n\r\n    // Modifiers\r\n    modifier onlyRole(bytes32 role) {\r\n        require(hasRole(role, msg.sender), \"Access denied: role not granted\");\r\n        _;\r\n    }\r\n\r\n    modifier electionExists(uint256 _electionId) {\r\n        require(_electionId > 0 && _electionId <= electionCount, \"Election does not exist\");\r\n        _;\r\n    }\r\n\r\n    modifier electionInStatus(uint256 _electionId, ElectionStatus _status) {\r\n        require(electionInfo[_electionId].status == _status, \"Election is not in required status\");\r\n        _;\r\n    }\r\n\r\n    modifier canManageElection(uint256 _electionId) {\r\n        require(\r\n            hasRole(SUPER_ADMIN_ROLE, msg.sender) || \r\n            msg.sender == electionInfo[_electionId].admin,\r\n            \"Not authorized to manage this election\"\r\n        );\r\n        _;\r\n    }\r\n\r\n    // Constructor\r\n    constructor() {\r\n        owner = msg.sender;\r\n        _grantRole(SUPER_ADMIN_ROLE, msg.sender);\r\n        electionCount = 0;\r\n    }\r\n\r\n    /**\r\n     * @dev Check if an account has a specific role\r\n     */\r\n    function hasRole(bytes32 role, address account) public view returns (bool) {\r\n        return roles[role][account];\r\n    }\r\n\r\n    /**\r\n     * @dev Grant a role to an account\r\n     */\r\n    function grantRole(bytes32 role, address account) external onlyRole(SUPER_ADMIN_ROLE) {\r\n        _grantRole(role, account);\r\n    }\r\n\r\n    /**\r\n     * @dev Revoke a role from an account\r\n     */\r\n    function revokeRole(bytes32 role, address account) external onlyRole(SUPER_ADMIN_ROLE) {\r\n        _revokeRole(role, account);\r\n    }\r\n\r\n    /**\r\n     * @dev Internal function to grant a role\r\n     */\r\n    function _grantRole(bytes32 role, address account) internal {\r\n        if (!hasRole(role, account)) {\r\n            roles[role][account] = true;\r\n            emit RoleGranted(role, account);\r\n        }\r\n    }\r\n\r\n    /**\r\n     * @dev Internal function to revoke a role\r\n     */\r\n    function _revokeRole(bytes32 role, address account) internal {\r\n        if (hasRole(role, account)) {\r\n            roles[role][account] = false;\r\n            emit RoleRevoked(role, account);\r\n        }\r\n    }\r\n\r\n    /**\r\n     * @dev Create a new organization\r\n     */\r\n    function createOrganization(bytes32 _organizationId, string memory _name) \r\n        external \r\n        onlyRole(SUPER_ADMIN_ROLE) \r\n    {\r\n        require(!organizations[_organizationId], \"Organization already exists\");\r\n        organizations[_organizationId] = true;\r\n        emit OrganizationCreated(_organizationId, _name);\r\n    }\r\n\r\n    /**\r\n     * @dev Create a new election with enhanced parameters\r\n     */\r\n    function createElection(\r\n        string memory _title,\r\n        string memory _description,\r\n        uint256 _registrationStartTime,\r\n        uint256 _votingStartTime,\r\n        uint256 _votingEndTime,\r\n        ElectionType _electionType,\r\n        bytes32 _organizationId,\r\n        string memory _metadataURI\r\n    ) external onlyRole(ELECTION_ADMIN_ROLE) returns (uint256) {\r\n        require(_registrationStartTime >= block.timestamp, \"Registration start must be in the future\");\r\n        require(_votingStartTime > _registrationStartTime, \"Voting start must be after registration start\");\r\n        require(_votingEndTime > _votingStartTime, \"Voting end must be after voting start\");\r\n        \r\n        if (_electionType == ElectionType.ORGANIZATION) {\r\n            require(organizations[_organizationId], \"Organization does not exist\");\r\n        }\r\n\r\n        electionCount++;\r\n        uint256 electionId = electionCount;\r\n        \r\n        electionInfo[electionId] = ElectionInfo({\r\n            id: electionId,\r\n            title: _title,\r\n            description: _description,\r\n            registrationStartTime: _registrationStartTime,\r\n            votingStartTime: _votingStartTime,\r\n            votingEndTime: _votingEndTime,\r\n            status: ElectionStatus.DRAFT,\r\n            electionType: _electionType,\r\n            admin: msg.sender,\r\n            candidateCount: 0,\r\n            totalVotes: 0,\r\n            organizationId: _organizationId,\r\n            metadataURI: _metadataURI\r\n        });\r\n\r\n        emit ElectionCreated(electionId, _title, _electionType, msg.sender);\r\n        return electionId;\r\n    }\r\n\r\n    /**\r\n     * @dev Add a candidate to an election with enhanced checks\r\n     */\r\n    function addCandidate(\r\n        uint256 _electionId,\r\n        string memory _name,\r\n        string memory _details\r\n    ) external electionExists(_electionId) canManageElection(_electionId) returns (uint256) {\r\n        require(electionInfo[_electionId].status == ElectionStatus.DRAFT, \"Can only add candidates to draft elections\");\r\n        require(bytes(_name).length > 0, \"Candidate name cannot be empty\");\r\n        \r\n        electionInfo[_electionId].candidateCount++;\r\n        uint256 candidateId = electionInfo[_electionId].candidateCount;\r\n        \r\n        candidates[_electionId][candidateId] = Candidate({\r\n            id: candidateId,\r\n            name: _name,\r\n            details: _details,\r\n            voteCount: 0,\r\n            isActive: true\r\n        });\r\n\r\n        emit CandidateAdded(_electionId, candidateId, _name);\r\n        return candidateId;\r\n    }\r\n\r\n    /**\r\n     * @dev Register a voter for an election\r\n     */\r\n    function registerVoter(\r\n        uint256 _electionId, \r\n        string memory _verificationData\r\n    ) external electionExists(_electionId) {\r\n        require(\r\n            electionInfo[_electionId].status == ElectionStatus.REGISTRATION || \r\n            (electionInfo[_electionId].electionType == ElectionType.PUBLIC && electionInfo[_electionId].status == ElectionStatus.ACTIVE),\r\n            \"Registration not open\"\r\n        );\r\n        \r\n        require(\r\n            voterRegistrations[_electionId][msg.sender].status == VoterStatus.NONE ||\r\n            voterRegistrations[_electionId][msg.sender].status == VoterStatus.REJECTED,\r\n            \"Already registered or blacklisted\"\r\n        );\r\n\r\n        VoterStatus status = electionInfo[_electionId].electionType == ElectionType.PUBLIC ? \r\n            VoterStatus.APPROVED : VoterStatus.PENDING;\r\n\r\n        voterRegistrations[_electionId][msg.sender] = VoterRegistration({\r\n            status: status,\r\n            registrationTime: block.timestamp,\r\n            approver: address(0),\r\n            verificationData: _verificationData\r\n        });\r\n\r\n        emit VoterRegistered(_electionId, msg.sender, status);\r\n    }\r\n\r\n    /**\r\n     * @dev Approve or reject a voter registration\r\n     */\r\n    function updateVoterStatus(\r\n        uint256 _electionId,\r\n        address _voter,\r\n        VoterStatus _newStatus\r\n    ) external electionExists(_electionId) canManageElection(_electionId) {\r\n        require(\r\n            _newStatus == VoterStatus.APPROVED || \r\n            _newStatus == VoterStatus.REJECTED || \r\n            _newStatus == VoterStatus.BLACKLISTED,\r\n            \"Invalid status\"\r\n        );\r\n        \r\n        require(\r\n            voterRegistrations[_electionId][_voter].status == VoterStatus.PENDING,\r\n            \"Can only update pending registrations\"\r\n        );\r\n\r\n        voterRegistrations[_electionId][_voter].status = _newStatus;\r\n        voterRegistrations[_electionId][_voter].approver = msg.sender;\r\n\r\n        emit VoterStatusUpdated(_electionId, _voter, _newStatus, msg.sender);\r\n    }\r\n\r\n    /**\r\n     * @dev Bulk approve voters\r\n     */\r\n    function bulkApproveVoters(\r\n        uint256 _electionId,\r\n        address[] memory _voters\r\n    ) external electionExists(_electionId) canManageElection(_electionId) {\r\n        for (uint i = 0; i < _voters.length; i++) {\r\n            if (voterRegistrations[_electionId][_voters[i]].status == VoterStatus.PENDING) {\r\n                voterRegistrations[_electionId][_voters[i]].status = VoterStatus.APPROVED;\r\n                voterRegistrations[_electionId][_voters[i]].approver = msg.sender;\r\n                emit VoterStatusUpdated(_electionId, _voters[i], VoterStatus.APPROVED, msg.sender);\r\n            }\r\n        }\r\n    }\r\n\r\n    /**\r\n     * @dev Update election status\r\n     */\r\n    function updateElectionStatus(\r\n        uint256 _electionId,\r\n        ElectionStatus _newStatus\r\n    ) external electionExists(_electionId) canManageElection(_electionId) {\r\n        ElectionInfo storage election = electionInfo[_electionId];\r\n        \r\n        // Validate status transitions\r\n        if (_newStatus == ElectionStatus.REGISTRATION) {\r\n            require(election.status == ElectionStatus.DRAFT, \"Can only move to registration from draft\");\r\n            require(election.candidateCount > 0, \"Must have at least one candidate\");\r\n        } else if (_newStatus == ElectionStatus.ACTIVE) {\r\n            require(election.status == ElectionStatus.REGISTRATION, \"Can only move to active from registration\");\r\n            require(block.timestamp >= election.votingStartTime, \"Voting period has not started\");\r\n        } else if (_newStatus == ElectionStatus.ENDED) {\r\n            require(election.status == ElectionStatus.ACTIVE, \"Can only end active elections\");\r\n            require(block.timestamp >= election.votingEndTime, \"Voting period has not ended\");\r\n        }\r\n        \r\n        election.status = _newStatus;\r\n        emit ElectionStatusChanged(_electionId, _newStatus);\r\n    }\r\n\r\n    /**\r\n     * @dev Cast a vote with enhanced validation\r\n     */\r\n    function vote(uint256 _electionId, uint256 _candidateId) \r\n        external \r\n        electionExists(_electionId) \r\n        electionInStatus(_electionId, ElectionStatus.ACTIVE) \r\n    {\r\n        ElectionInfo storage election = electionInfo[_electionId];\r\n        \r\n        require(block.timestamp >= election.votingStartTime && block.timestamp <= election.votingEndTime, \"Outside voting period\");\r\n        require(!hasVoted[_electionId][msg.sender], \"Already voted\");\r\n        require(_candidateId > 0 && _candidateId <= election.candidateCount, \"Invalid candidate\");\r\n        require(candidates[_electionId][_candidateId].isActive, \"Candidate is not active\");\r\n        \r\n        // Check voter eligibility\r\n        require(\r\n            election.electionType == ElectionType.PUBLIC || \r\n            voterRegistrations[_electionId][msg.sender].status == VoterStatus.APPROVED,\r\n            \"Not eligible to vote\"\r\n        );\r\n        \r\n        hasVoted[_electionId][msg.sender] = true;\r\n        candidates[_electionId][_candidateId].voteCount++;\r\n        election.totalVotes++;\r\n        \r\n        // Generate vote receipt for verification\r\n        uint256 voteReceipt = uint256(keccak256(abi.encodePacked(_electionId, msg.sender, _candidateId, block.timestamp)));\r\n        votingReceipts[_electionId][msg.sender] = voteReceipt;\r\n        \r\n        emit VoteCast(_electionId, msg.sender, _candidateId, voteReceipt);\r\n    }\r\n\r\n    /**\r\n     * @dev Finalize an election with enhanced validation\r\n     */\r\n    function finalizeElection(uint256 _electionId) \r\n        external \r\n        electionExists(_electionId) \r\n        canManageElection(_electionId) \r\n        electionInStatus(_electionId, ElectionStatus.ENDED) \r\n    {\r\n        ElectionInfo storage election = electionInfo[_electionId];\r\n        \r\n        uint256 winningCandidateId = 0;\r\n        uint256 maxVotes = 0;\r\n        \r\n        for (uint256 i = 1; i <= election.candidateCount; i++) {\r\n            if (candidates[_electionId][i].voteCount > maxVotes) {\r\n                maxVotes = candidates[_electionId][i].voteCount;\r\n                winningCandidateId = i;\r\n            }\r\n        }\r\n        \r\n        election.status = ElectionStatus.FINALIZED;\r\n        emit ElectionFinalized(_electionId, winningCandidateId);\r\n    }\r\n\r\n    /**\r\n     * @dev Get voter registration details\r\n     */\r\n    function getVoterRegistration(uint256 _electionId, address _voter) \r\n        external \r\n        view \r\n        electionExists(_electionId) \r\n        returns (VoterRegistration memory) \r\n    {\r\n        return voterRegistrations[_electionId][_voter];\r\n    }\r\n\r\n    /**\r\n     * @dev Get election details with enhanced information\r\n     */\r\n    function getElectionDetails(uint256 _electionId)\r\n        external\r\n        view\r\n        electionExists(_electionId)\r\n        returns (\r\n            uint256 id,\r\n            string memory title,\r\n            string memory description,\r\n            uint256 registrationStartTime,\r\n            uint256 votingStartTime,\r\n            uint256 votingEndTime,\r\n            ElectionStatus status,\r\n            ElectionType electionType,\r\n            address admin,\r\n            uint256 candidateCount,\r\n            uint256 totalVotes,\r\n            bytes32 organizationId,\r\n            string memory metadataURI\r\n        )\r\n    {\r\n        ElectionInfo storage election = electionInfo[_electionId];\r\n        return (\r\n            election.id,\r\n            election.title,\r\n            election.description,\r\n            election.registrationStartTime,\r\n            election.votingStartTime,\r\n            election.votingEndTime,\r\n            election.status,\r\n            election.electionType,\r\n            election.admin,\r\n            election.candidateCount,\r\n            election.totalVotes,\r\n            election.organizationId,\r\n            election.metadataURI\r\n        );\r\n    }\r\n\r\n    /**\r\n     * @dev Verify a vote receipt\r\n     */\r\n    function verifyVoteReceipt(uint256 _electionId, address _voter, uint256 _receipt) \r\n        external \r\n        view \r\n        electionExists(_electionId) \r\n        returns (bool) \r\n    {\r\n        return votingReceipts[_electionId][_voter] == _receipt;\r\n    }\r\n}",
  "sourcePath": "C:\\Users\\Miflow\\decentralized-voting-system\\blockchain\\contracts\\DecentralizedVotingSystem.sol",
  "compiler": {
    "name": "solc",
    "version": "0.8.17+commit.8df45f5f.Emscripten.clang"
  },
  "schemaVersion": "3.4.16",
  "updatedAt": "2025-04-20T03:52:21.661Z",
  "devdoc": {
    "details": "Implements multi-tier access control, better registration flow, and improved security",
    "kind": "dev",
    "methods": {
      "addCandidate(uint256,string,string)": {
        "details": "Add a candidate to an election with enhanced checks"
      },
      "bulkApproveVoters(uint256,address[])": {
        "details": "Bulk approve voters"
      },
      "createElection(string,string,uint256,uint256,uint256,uint8,bytes32,string)": {
        "details": "Create a new election with enhanced parameters"
      },
      "createOrganization(bytes32,string)": {
        "details": "Create a new organization"
      },
      "finalizeElection(uint256)": {
        "details": "Finalize an election with enhanced validation"
      },
      "getElectionDetails(uint256)": {
        "details": "Get election details with enhanced information"
      },
      "getVoterRegistration(uint256,address)": {
        "details": "Get voter registration details"
      },
      "grantRole(bytes32,address)": {
        "details": "Grant a role to an account"
      },
      "hasRole(bytes32,address)": {
        "details": "Check if an account has a specific role"
      },
      "registerVoter(uint256,string)": {
        "details": "Register a voter for an election"
      },
      "revokeRole(bytes32,address)": {
        "details": "Revoke a role from an account"
      },
      "updateElectionStatus(uint256,uint8)": {
        "details": "Update election status"
      },
      "updateVoterStatus(uint256,address,uint8)": {
        "details": "Approve or reject a voter registration"
      },
      "verifyVoteReceipt(uint256,address,uint256)": {
        "details": "Verify a vote receipt"
      },
      "vote(uint256,uint256)": {
        "details": "Cast a vote with enhanced validation"
      }
    },
    "title": "Improved Decentralized Voting System with Enhanced Access Control",
    "version": 1
  },
  "userdoc": {
    "kind": "user",
    "methods": {},
    "version": 1
  }
}